{"contracts/SignatureVerifyingPaymaster.sol":{"SignatureVerifyingPaymaster":{"abi":[{"inputs":[{"internalType":"contract IEntryPoint","name":"_entryPoint","type":"address"},{"internalType":"address","name":"_trustedSigner","type":"address"}],"stateMutability":"nonpayable","type":"constructor"},{"inputs":[],"name":"ECDSAInvalidSignature","type":"error"},{"inputs":[{"internalType":"uint256","name":"length","type":"uint256"}],"name":"ECDSAInvalidSignatureLength","type":"error"},{"inputs":[{"internalType":"bytes32","name":"s","type":"bytes32"}],"name":"ECDSAInvalidSignatureS","type":"error"},{"inputs":[{"internalType":"address","name":"owner","type":"address"}],"name":"OwnableInvalidOwner","type":"error"},{"inputs":[{"internalType":"address","name":"account","type":"address"}],"name":"OwnableUnauthorizedAccount","type":"error"},{"anonymous":false,"inputs":[{"indexed":true,"internalType":"address","name":"previousOwner","type":"address"},{"indexed":true,"internalType":"address","name":"newOwner","type":"address"}],"name":"OwnershipTransferred","type":"event"},{"inputs":[{"internalType":"uint32","name":"unstakeDelaySec","type":"uint32"}],"name":"addStake","outputs":[],"stateMutability":"payable","type":"function"},{"inputs":[],"name":"deposit","outputs":[],"stateMutability":"payable","type":"function"},{"inputs":[],"name":"entryPoint","outputs":[{"internalType":"contract IEntryPoint","name":"","type":"address"}],"stateMutability":"view","type":"function"},{"inputs":[],"name":"getDeposit","outputs":[{"internalType":"uint256","name":"","type":"uint256"}],"stateMutability":"view","type":"function"},{"inputs":[{"internalType":"bytes32","name":"userOpHash","type":"bytes32"}],"name":"getHash","outputs":[{"internalType":"bytes32","name":"","type":"bytes32"}],"stateMutability":"pure","type":"function"},{"inputs":[],"name":"owner","outputs":[{"internalType":"address","name":"","type":"address"}],"stateMutability":"view","type":"function"},{"inputs":[{"internalType":"enum IPaymaster.PostOpMode","name":"mode","type":"uint8"},{"internalType":"bytes","name":"context","type":"bytes"},{"internalType":"uint256","name":"actualGasCost","type":"uint256"},{"internalType":"uint256","name":"actualUserOpFeePerGas","type":"uint256"}],"name":"postOp","outputs":[],"stateMutability":"nonpayable","type":"function"},{"inputs":[],"name":"renounceOwnership","outputs":[],"stateMutability":"nonpayable","type":"function"},{"inputs":[{"internalType":"address","name":"_trustedSigner","type":"address"}],"name":"setTrustedSigner","outputs":[],"stateMutability":"nonpayable","type":"function"},{"inputs":[{"internalType":"address","name":"newOwner","type":"address"}],"name":"transferOwnership","outputs":[],"stateMutability":"nonpayable","type":"function"},{"inputs":[],"name":"trustedSigner","outputs":[{"internalType":"address","name":"","type":"address"}],"stateMutability":"view","type":"function"},{"inputs":[],"name":"unlockStake","outputs":[],"stateMutability":"nonpayable","type":"function"},{"inputs":[{"components":[{"internalType":"address","name":"sender","type":"address"},{"internalType":"uint256","name":"nonce","type":"uint256"},{"internalType":"bytes","name":"initCode","type":"bytes"},{"internalType":"bytes","name":"callData","type":"bytes"},{"internalType":"bytes32","name":"accountGasLimits","type":"bytes32"},{"internalType":"uint256","name":"preVerificationGas","type":"uint256"},{"internalType":"bytes32","name":"gasFees","type":"bytes32"},{"internalType":"bytes","name":"paymasterAndData","type":"bytes"},{"internalType":"bytes","name":"signature","type":"bytes"}],"internalType":"struct PackedUserOperation","name":"userOp","type":"tuple"},{"internalType":"bytes32","name":"userOpHash","type":"bytes32"},{"internalType":"uint256","name":"maxCost","type":"uint256"}],"name":"validatePaymasterUserOp","outputs":[{"internalType":"bytes","name":"context","type":"bytes"},{"internalType":"uint256","name":"validationData","type":"uint256"}],"stateMutability":"nonpayable","type":"function"},{"inputs":[{"internalType":"bytes32","name":"hash","type":"bytes32"},{"internalType":"bytes","name":"signature","type":"bytes"}],"name":"verifySignature","outputs":[{"internalType":"bool","name":"","type":"bool"}],"stateMutability":"view","type":"function"},{"inputs":[{"internalType":"address payable","name":"withdrawAddress","type":"address"}],"name":"withdrawStake","outputs":[],"stateMutability":"nonpayable","type":"function"},{"inputs":[{"internalType":"address payable","name":"withdrawAddress","type":"address"},{"internalType":"uint256","name":"amount","type":"uint256"}],"name":"withdrawTo","outputs":[],"stateMutability":"nonpayable","type":"function"}],"evm":{"bytecode":{"linkReferences":{},"object":"60a06040523480156200001157600080fd5b5060405162001263380380620012638339810160408190526200003491620001ca565b8133806200005d57604051631e4fbdf760e01b8152600060048201526024015b60405180910390fd5b6200006881620000a1565b506200007481620000f1565b6001600160a01b03908116608052600180546001600160a01b031916929091169190911790555062000234565b600080546001600160a01b038381166001600160a01b0319831681178455604051919092169283917f8be0079c531659141344cd1fd0a4f28419497f9722a3daafe3b4186f6b6457e09190a35050565b6040516301ffc9a760e01b815263122a0e9b60e31b60048201526001600160a01b038216906301ffc9a790602401602060405180830381865afa1580156200013d573d6000803e3d6000fd5b505050506040513d601f19601f8201168201806040525081019062000163919062000209565b620001b15760405162461bcd60e51b815260206004820152601e60248201527f49456e747279506f696e7420696e74657266616365206d69736d617463680000604482015260640162000054565b50565b6001600160a01b0381168114620001b157600080fd5b60008060408385031215620001de57600080fd5b8251620001eb81620001b4565b6020840151909250620001fe81620001b4565b809150509250929050565b6000602082840312156200021c57600080fd5b815180151581146200022d57600080fd5b9392505050565b608051610fdb62000288600039600081816102270152818161032d015281816103c4015281816104e20152818161057c015281816105ec01528181610679015281816107ac01526108360152610fdb6000f3fe6080604052600436106100f35760003560e01c8063b0d691fe1161008a578063d0e30db011610059578063d0e30db014610293578063daca6f781461029b578063f2fde38b146102cb578063f74d5480146102eb57600080fd5b8063b0d691fe14610215578063bb9fe6bf14610249578063c23a5cea1461025e578063c399ec881461027e57600080fd5b806356a1c701116100c657806356a1c7011461018e578063715018a6146101ae5780637c627b21146101c35780638da5cb5b146101e357600080fd5b80630396cb60146100f8578063205c28781461010d5780633cf5040a1461012d57806352b7512c14610160575b600080fd5b61010b610106366004610cb8565b61030b565b005b34801561011957600080fd5b5061010b610128366004610cfa565b610396565b34801561013957600080fd5b5061014d610148366004610d26565b610408565b6040519081526020015b60405180910390f35b34801561016c57600080fd5b5061018061017b366004610d3f565b61045b565b604051610157929190610d93565b34801561019a57600080fd5b5061010b6101a9366004610de8565b61047e565b3480156101ba57600080fd5b5061010b6104a8565b3480156101cf57600080fd5b5061010b6101de366004610e4e565b6104bc565b3480156101ef57600080fd5b506000546001600160a01b03165b6040516001600160a01b039091168152602001610157565b34801561022157600080fd5b506101fd7f000000000000000000000000000000000000000000000000000000000000000081565b34801561025557600080fd5b5061010b6104d8565b34801561026a57600080fd5b5061010b610279366004610de8565b610555565b34801561028a57600080fd5b5061014d6105d4565b61010b610664565b3480156102a757600080fd5b506102bb6102b6366004610eb9565b6106c6565b6040519015158152602001610157565b3480156102d757600080fd5b5061010b6102e6366004610de8565b610731565b3480156102f757600080fd5b506001546101fd906001600160a01b031681565b610313610774565b604051621cb65b60e51b815263ffffffff821660048201527f00000000000000000000000000000000000000000000000000000000000000006001600160a01b031690630396cb609034906024016000604051808303818588803b15801561037a57600080fd5b505af115801561038e573d6000803e3d6000fd5b505050505050565b61039e610774565b60405163040b850f60e31b81526001600160a01b038381166004830152602482018390527f0000000000000000000000000000000000000000000000000000000000000000169063205c287890604401600060405180830381600087803b15801561037a57600080fd5b6040517f19457468657265756d205369676e6564204d6573736167653a0a3332000000006020820152603c8101829052600090605c01604051602081830303815290604052805190602001209050919050565b606060006104676107a1565b610472858585610811565b91509150935093915050565b610486610774565b600180546001600160a01b0319166001600160a01b0392909216919091179055565b6104b0610774565b6104ba6000610a2d565b565b6104c46107a1565b6104d18585858585610a7d565b5050505050565b6104e0610774565b7f00000000000000000000000000000000000000000000000000000000000000006001600160a01b031663bb9fe6bf6040518163ffffffff1660e01b8152600401600060405180830381600087803b15801561053b57600080fd5b505af115801561054f573d6000803e3d6000fd5b50505050565b61055d610774565b60405163611d2e7560e11b81526001600160a01b0382811660048301527f0000000000000000000000000000000000000000000000000000000000000000169063c23a5cea90602401600060405180830381600087803b1580156105c057600080fd5b505af11580156104d1573d6000803e3d6000fd5b6040516370a0823160e01b81523060048201526000907f00000000000000000000000000000000000000000000000000000000000000006001600160a01b0316906370a0823190602401602060405180830381865afa15801561063b573d6000803e3d6000fd5b505050506040513d601f19601f8201168201806040525081019061065f9190610f05565b905090565b60405163b760faf960e01b81523060048201527f00000000000000000000000000000000000000000000000000000000000000006001600160a01b03169063b760faf99034906024016000604051808303818588803b1580156105c057600080fd5b6000806106d285610408565b905060006107168286868080601f016020809104026020016040519081016040528093929190818152602001838380828437600092019190915250610ab592505050565b6001546001600160a01b039081169116149695505050505050565b610739610774565b6001600160a01b03811661076857604051631e4fbdf760e01b8152600060048201526024015b60405180910390fd5b61077181610a2d565b50565b6000546001600160a01b031633146104ba5760405163118cdaa760e01b815233600482015260240161075f565b336001600160a01b037f000000000000000000000000000000000000000000000000000000000000000016146104ba5760405162461bcd60e51b815260206004820152601560248201527414d95b99195c881b9bdd08115b9d1c9e541bda5b9d605a1b604482015260640161075f565b6040516370a0823160e01b815230600482015260609060009083906001600160a01b037f000000000000000000000000000000000000000000000000000000000000000016906370a0823190602401602060405180830381865afa15801561087d573d6000803e3d6000fd5b505050506040513d601f19601f820116820180604052508101906108a19190610f05565b10156108ef5760405162461bcd60e51b815260206004820152601c60248201527f496e73756666696369656e74206465706f73697420666f722067617300000000604482015260640161075f565b3660006108ff60e0880188610f1e565b9092509050604d8110156109555760405162461bcd60e51b815260206004820152601f60248201527f496e76616c6964207061796d6173746572416e6444617461206c656e67746800604482015260640161075f565b36600061096583600c8187610f65565b91509150600061097489610408565b905060006109b88285858080601f016020809104026020016040519081016040528093929190818152602001838380828437600092019190915250610ab592505050565b6001549091506001600160a01b03808316911614610a0c5760405162461bcd60e51b8152602060048201526011602482015270496e76616c6964207369676e617475726560781b604482015260640161075f565b5050604080516000808252602082019092529a909950975050505050505050565b600080546001600160a01b038381166001600160a01b0319831681178455604051919092169283917f8be0079c531659141344cd1fd0a4f28419497f9722a3daafe3b4186f6b6457e09190a35050565b60405162461bcd60e51b815260206004820152600d60248201526c6d757374206f7665727269646560981b604482015260640161075f565b600080600080610ac58686610adf565b925092509250610ad58282610b2c565b5090949350505050565b60008060008351604103610b195760208401516040850151606086015160001a610b0b88828585610be9565b955095509550505050610b25565b50508151600091506002905b9250925092565b6000826003811115610b4057610b40610f8f565b03610b49575050565b6001826003811115610b5d57610b5d610f8f565b03610b7b5760405163f645eedf60e01b815260040160405180910390fd5b6002826003811115610b8f57610b8f610f8f565b03610bb05760405163fce698f760e01b81526004810182905260240161075f565b6003826003811115610bc457610bc4610f8f565b03610be5576040516335e2f38360e21b81526004810182905260240161075f565b5050565b600080807f7fffffffffffffffffffffffffffffff5d576e7357a4501ddfe92f46681b20a0841115610c245750600091506003905082610cae565b604080516000808252602082018084528a905260ff891692820192909252606081018790526080810186905260019060a0016020604051602081039080840390855afa158015610c78573d6000803e3d6000fd5b5050604051601f1901519150506001600160a01b038116610ca457506000925060019150829050610cae565b9250600091508190505b9450945094915050565b600060208284031215610cca57600080fd5b813563ffffffff81168114610cde57600080fd5b9392505050565b6001600160a01b038116811461077157600080fd5b60008060408385031215610d0d57600080fd5b8235610d1881610ce5565b946020939093013593505050565b600060208284031215610d3857600080fd5b5035919050565b600080600060608486031215610d5457600080fd5b833567ffffffffffffffff811115610d6b57600080fd5b84016101208187031215610d7e57600080fd5b95602085013595506040909401359392505050565b604081526000835180604084015260005b81811015610dc15760208187018101516060868401015201610da4565b506000606082850101526060601f19601f8301168401019150508260208301529392505050565b600060208284031215610dfa57600080fd5b8135610cde81610ce5565b60008083601f840112610e1757600080fd5b50813567ffffffffffffffff811115610e2f57600080fd5b602083019150836020828501011115610e4757600080fd5b9250929050565b600080600080600060808688031215610e6657600080fd5b853560038110610e7557600080fd5b9450602086013567ffffffffffffffff811115610e9157600080fd5b610e9d88828901610e05565b9699909850959660408101359660609091013595509350505050565b600080600060408486031215610ece57600080fd5b83359250602084013567ffffffffffffffff811115610eec57600080fd5b610ef886828701610e05565b9497909650939450505050565b600060208284031215610f1757600080fd5b5051919050565b6000808335601e19843603018112610f3557600080fd5b83018035915067ffffffffffffffff821115610f5057600080fd5b602001915036819003821315610e4757600080fd5b60008085851115610f7557600080fd5b83861115610f8257600080fd5b5050820193919092039150565b634e487b7160e01b600052602160045260246000fdfea2646970667358221220d6029ab44723baf3d6f8ad506cf589edb42a085a0a5de9b4e68bb328636038bf64736f6c63430008170033","opcodes":"PUSH1 0xA0 PUSH1 0x40 MSTORE CALLVALUE DUP1 ISZERO PUSH3 0x11 JUMPI PUSH1 0x0 DUP1 REVERT JUMPDEST POP PUSH1 0x40 MLOAD PUSH3 0x1263 CODESIZE SUB DUP1 PUSH3 0x1263 DUP4 CODECOPY DUP2 ADD PUSH1 0x40 DUP2 SWAP1 MSTORE PUSH3 0x34 SWAP2 PUSH3 0x1CA JUMP JUMPDEST DUP2 CALLER DUP1 PUSH3 0x5D JUMPI PUSH1 0x40 MLOAD PUSH4 0x1E4FBDF7 PUSH1 0xE0 SHL DUP2 MSTORE PUSH1 0x0 PUSH1 0x4 DUP3 ADD MSTORE PUSH1 0x24 ADD JUMPDEST PUSH1 0x40 MLOAD DUP1 SWAP2 SUB SWAP1 REVERT JUMPDEST PUSH3 0x68 DUP2 PUSH3 0xA1 JUMP JUMPDEST POP PUSH3 0x74 DUP2 PUSH3 0xF1 JUMP JUMPDEST PUSH1 0x1 PUSH1 0x1 PUSH1 0xA0 SHL SUB SWAP1 DUP2 AND PUSH1 0x80 MSTORE PUSH1 0x1 DUP1 SLOAD PUSH1 0x1 PUSH1 0x1 PUSH1 0xA0 SHL SUB NOT AND SWAP3 SWAP1 SWAP2 AND SWAP2 SWAP1 SWAP2 OR SWAP1 SSTORE POP PUSH3 0x234 JUMP JUMPDEST PUSH1 0x0 DUP1 SLOAD PUSH1 0x1 PUSH1 0x1 PUSH1 0xA0 SHL SUB DUP4 DUP2 AND PUSH1 0x1 PUSH1 0x1 PUSH1 0xA0 SHL SUB NOT DUP4 AND DUP2 OR DUP5 SSTORE PUSH1 0x40 MLOAD SWAP2 SWAP1 SWAP3 AND SWAP3 DUP4 SWAP2 PUSH32 0x8BE0079C531659141344CD1FD0A4F28419497F9722A3DAAFE3B4186F6B6457E0 SWAP2 SWAP1 LOG3 POP POP JUMP JUMPDEST PUSH1 0x40 MLOAD PUSH4 0x1FFC9A7 PUSH1 0xE0 SHL DUP2 MSTORE PUSH4 0x122A0E9B PUSH1 0xE3 SHL PUSH1 0x4 DUP3 ADD MSTORE PUSH1 0x1 PUSH1 0x1 PUSH1 0xA0 SHL SUB DUP3 AND SWAP1 PUSH4 0x1FFC9A7 SWAP1 PUSH1 0x24 ADD PUSH1 0x20 PUSH1 0x40 MLOAD DUP1 DUP4 SUB DUP2 DUP7 GAS STATICCALL ISZERO DUP1 ISZERO PUSH3 0x13D JUMPI RETURNDATASIZE PUSH1 0x0 DUP1 RETURNDATACOPY RETURNDATASIZE PUSH1 0x0 REVERT JUMPDEST POP POP POP POP PUSH1 0x40 MLOAD RETURNDATASIZE PUSH1 0x1F NOT PUSH1 0x1F DUP3 ADD AND DUP3 ADD DUP1 PUSH1 0x40 MSTORE POP DUP2 ADD SWAP1 PUSH3 0x163 SWAP2 SWAP1 PUSH3 0x209 JUMP JUMPDEST PUSH3 0x1B1 JUMPI PUSH1 0x40 MLOAD PUSH3 0x461BCD PUSH1 0xE5 SHL DUP2 MSTORE PUSH1 0x20 PUSH1 0x4 DUP3 ADD MSTORE PUSH1 0x1E PUSH1 0x24 DUP3 ADD MSTORE PUSH32 0x49456E747279506F696E7420696E74657266616365206D69736D617463680000 PUSH1 0x44 DUP3 ADD MSTORE PUSH1 0x64 ADD PUSH3 0x54 JUMP JUMPDEST POP JUMP JUMPDEST PUSH1 0x1 PUSH1 0x1 PUSH1 0xA0 SHL SUB DUP2 AND DUP2 EQ PUSH3 0x1B1 JUMPI PUSH1 0x0 DUP1 REVERT JUMPDEST PUSH1 0x0 DUP1 PUSH1 0x40 DUP4 DUP6 SUB SLT ISZERO PUSH3 0x1DE JUMPI PUSH1 0x0 DUP1 REVERT JUMPDEST DUP3 MLOAD PUSH3 0x1EB DUP2 PUSH3 0x1B4 JUMP JUMPDEST PUSH1 0x20 DUP5 ADD MLOAD SWAP1 SWAP3 POP PUSH3 0x1FE DUP2 PUSH3 0x1B4 JUMP JUMPDEST DUP1 SWAP2 POP POP SWAP3 POP SWAP3 SWAP1 POP JUMP JUMPDEST PUSH1 0x0 PUSH1 0x20 DUP3 DUP5 SUB SLT ISZERO PUSH3 0x21C JUMPI PUSH1 0x0 DUP1 REVERT JUMPDEST DUP2 MLOAD DUP1 ISZERO ISZERO DUP2 EQ PUSH3 0x22D JUMPI PUSH1 0x0 DUP1 REVERT JUMPDEST SWAP4 SWAP3 POP POP POP JUMP JUMPDEST PUSH1 0x80 MLOAD PUSH2 0xFDB PUSH3 0x288 PUSH1 0x0 CODECOPY PUSH1 0x0 DUP2 DUP2 PUSH2 0x227 ADD MSTORE DUP2 DUP2 PUSH2 0x32D ADD MSTORE DUP2 DUP2 PUSH2 0x3C4 ADD MSTORE DUP2 DUP2 PUSH2 0x4E2 ADD MSTORE DUP2 DUP2 PUSH2 0x57C ADD MSTORE DUP2 DUP2 PUSH2 0x5EC ADD MSTORE DUP2 DUP2 PUSH2 0x679 ADD MSTORE DUP2 DUP2 PUSH2 0x7AC ADD MSTORE PUSH2 0x836 ADD MSTORE PUSH2 0xFDB PUSH1 0x0 RETURN INVALID PUSH1 0x80 PUSH1 0x40 MSTORE PUSH1 0x4 CALLDATASIZE LT PUSH2 0xF3 JUMPI PUSH1 0x0 CALLDATALOAD PUSH1 0xE0 SHR DUP1 PUSH4 0xB0D691FE GT PUSH2 0x8A JUMPI DUP1 PUSH4 0xD0E30DB0 GT PUSH2 0x59 JUMPI DUP1 PUSH4 0xD0E30DB0 EQ PUSH2 0x293 JUMPI DUP1 PUSH4 0xDACA6F78 EQ PUSH2 0x29B JUMPI DUP1 PUSH4 0xF2FDE38B EQ PUSH2 0x2CB JUMPI DUP1 PUSH4 0xF74D5480 EQ PUSH2 0x2EB JUMPI PUSH1 0x0 DUP1 REVERT JUMPDEST DUP1 PUSH4 0xB0D691FE EQ PUSH2 0x215 JUMPI DUP1 PUSH4 0xBB9FE6BF EQ PUSH2 0x249 JUMPI DUP1 PUSH4 0xC23A5CEA EQ PUSH2 0x25E JUMPI DUP1 PUSH4 0xC399EC88 EQ PUSH2 0x27E JUMPI PUSH1 0x0 DUP1 REVERT JUMPDEST DUP1 PUSH4 0x56A1C701 GT PUSH2 0xC6 JUMPI DUP1 PUSH4 0x56A1C701 EQ PUSH2 0x18E JUMPI DUP1 PUSH4 0x715018A6 EQ PUSH2 0x1AE JUMPI DUP1 PUSH4 0x7C627B21 EQ PUSH2 0x1C3 JUMPI DUP1 PUSH4 0x8DA5CB5B EQ PUSH2 0x1E3 JUMPI PUSH1 0x0 DUP1 REVERT JUMPDEST DUP1 PUSH4 0x396CB60 EQ PUSH2 0xF8 JUMPI DUP1 PUSH4 0x205C2878 EQ PUSH2 0x10D JUMPI DUP1 PUSH4 0x3CF5040A EQ PUSH2 0x12D JUMPI DUP1 PUSH4 0x52B7512C EQ PUSH2 0x160 JUMPI JUMPDEST PUSH1 0x0 DUP1 REVERT JUMPDEST PUSH2 0x10B PUSH2 0x106 CALLDATASIZE PUSH1 0x4 PUSH2 0xCB8 JUMP JUMPDEST PUSH2 0x30B JUMP JUMPDEST STOP JUMPDEST CALLVALUE DUP1 ISZERO PUSH2 0x119 JUMPI PUSH1 0x0 DUP1 REVERT JUMPDEST POP PUSH2 0x10B PUSH2 0x128 CALLDATASIZE PUSH1 0x4 PUSH2 0xCFA JUMP JUMPDEST PUSH2 0x396 JUMP JUMPDEST CALLVALUE DUP1 ISZERO PUSH2 0x139 JUMPI PUSH1 0x0 DUP1 REVERT JUMPDEST POP PUSH2 0x14D PUSH2 0x148 CALLDATASIZE PUSH1 0x4 PUSH2 0xD26 JUMP JUMPDEST PUSH2 0x408 JUMP JUMPDEST PUSH1 0x40 MLOAD SWAP1 DUP2 MSTORE PUSH1 0x20 ADD JUMPDEST PUSH1 0x40 MLOAD DUP1 SWAP2 SUB SWAP1 RETURN JUMPDEST CALLVALUE DUP1 ISZERO PUSH2 0x16C JUMPI PUSH1 0x0 DUP1 REVERT JUMPDEST POP PUSH2 0x180 PUSH2 0x17B CALLDATASIZE PUSH1 0x4 PUSH2 0xD3F JUMP JUMPDEST PUSH2 0x45B JUMP JUMPDEST PUSH1 0x40 MLOAD PUSH2 0x157 SWAP3 SWAP2 SWAP1 PUSH2 0xD93 JUMP JUMPDEST CALLVALUE DUP1 ISZERO PUSH2 0x19A JUMPI PUSH1 0x0 DUP1 REVERT JUMPDEST POP PUSH2 0x10B PUSH2 0x1A9 CALLDATASIZE PUSH1 0x4 PUSH2 0xDE8 JUMP JUMPDEST PUSH2 0x47E JUMP JUMPDEST CALLVALUE DUP1 ISZERO PUSH2 0x1BA JUMPI PUSH1 0x0 DUP1 REVERT JUMPDEST POP PUSH2 0x10B PUSH2 0x4A8 JUMP JUMPDEST CALLVALUE DUP1 ISZERO PUSH2 0x1CF JUMPI PUSH1 0x0 DUP1 REVERT JUMPDEST POP PUSH2 0x10B PUSH2 0x1DE CALLDATASIZE PUSH1 0x4 PUSH2 0xE4E JUMP JUMPDEST PUSH2 0x4BC JUMP JUMPDEST CALLVALUE DUP1 ISZERO PUSH2 0x1EF JUMPI PUSH1 0x0 DUP1 REVERT JUMPDEST POP PUSH1 0x0 SLOAD PUSH1 0x1 PUSH1 0x1 PUSH1 0xA0 SHL SUB AND JUMPDEST PUSH1 0x40 MLOAD PUSH1 0x1 PUSH1 0x1 PUSH1 0xA0 SHL SUB SWAP1 SWAP2 AND DUP2 MSTORE PUSH1 0x20 ADD PUSH2 0x157 JUMP JUMPDEST CALLVALUE DUP1 ISZERO PUSH2 0x221 JUMPI PUSH1 0x0 DUP1 REVERT JUMPDEST POP PUSH2 0x1FD PUSH32 0x0 DUP2 JUMP JUMPDEST CALLVALUE DUP1 ISZERO PUSH2 0x255 JUMPI PUSH1 0x0 DUP1 REVERT JUMPDEST POP PUSH2 0x10B PUSH2 0x4D8 JUMP JUMPDEST CALLVALUE DUP1 ISZERO PUSH2 0x26A JUMPI PUSH1 0x0 DUP1 REVERT JUMPDEST POP PUSH2 0x10B PUSH2 0x279 CALLDATASIZE PUSH1 0x4 PUSH2 0xDE8 JUMP JUMPDEST PUSH2 0x555 JUMP JUMPDEST CALLVALUE DUP1 ISZERO PUSH2 0x28A JUMPI PUSH1 0x0 DUP1 REVERT JUMPDEST POP PUSH2 0x14D PUSH2 0x5D4 JUMP JUMPDEST PUSH2 0x10B PUSH2 0x664 JUMP JUMPDEST CALLVALUE DUP1 ISZERO PUSH2 0x2A7 JUMPI PUSH1 0x0 DUP1 REVERT JUMPDEST POP PUSH2 0x2BB PUSH2 0x2B6 CALLDATASIZE PUSH1 0x4 PUSH2 0xEB9 JUMP JUMPDEST PUSH2 0x6C6 JUMP JUMPDEST PUSH1 0x40 MLOAD SWAP1 ISZERO ISZERO DUP2 MSTORE PUSH1 0x20 ADD PUSH2 0x157 JUMP JUMPDEST CALLVALUE DUP1 ISZERO PUSH2 0x2D7 JUMPI PUSH1 0x0 DUP1 REVERT JUMPDEST POP PUSH2 0x10B PUSH2 0x2E6 CALLDATASIZE PUSH1 0x4 PUSH2 0xDE8 JUMP JUMPDEST PUSH2 0x731 JUMP JUMPDEST CALLVALUE DUP1 ISZERO PUSH2 0x2F7 JUMPI PUSH1 0x0 DUP1 REVERT JUMPDEST POP PUSH1 0x1 SLOAD PUSH2 0x1FD SWAP1 PUSH1 0x1 PUSH1 0x1 PUSH1 0xA0 SHL SUB AND DUP2 JUMP JUMPDEST PUSH2 0x313 PUSH2 0x774 JUMP JUMPDEST PUSH1 0x40 MLOAD PUSH3 0x1CB65B PUSH1 0xE5 SHL DUP2 MSTORE PUSH4 0xFFFFFFFF DUP3 AND PUSH1 0x4 DUP3 ADD MSTORE PUSH32 0x0 PUSH1 0x1 PUSH1 0x1 PUSH1 0xA0 SHL SUB AND SWAP1 PUSH4 0x396CB60 SWAP1 CALLVALUE SWAP1 PUSH1 0x24 ADD PUSH1 0x0 PUSH1 0x40 MLOAD DUP1 DUP4 SUB DUP2 DUP6 DUP9 DUP1 EXTCODESIZE ISZERO DUP1 ISZERO PUSH2 0x37A JUMPI PUSH1 0x0 DUP1 REVERT JUMPDEST POP GAS CALL ISZERO DUP1 ISZERO PUSH2 0x38E JUMPI RETURNDATASIZE PUSH1 0x0 DUP1 RETURNDATACOPY RETURNDATASIZE PUSH1 0x0 REVERT JUMPDEST POP POP POP POP POP POP JUMP JUMPDEST PUSH2 0x39E PUSH2 0x774 JUMP JUMPDEST PUSH1 0x40 MLOAD PUSH4 0x40B850F PUSH1 0xE3 SHL DUP2 MSTORE PUSH1 0x1 PUSH1 0x1 PUSH1 0xA0 SHL SUB DUP4 DUP2 AND PUSH1 0x4 DUP4 ADD MSTORE PUSH1 0x24 DUP3 ADD DUP4 SWAP1 MSTORE PUSH32 0x0 AND SWAP1 PUSH4 0x205C2878 SWAP1 PUSH1 0x44 ADD PUSH1 0x0 PUSH1 0x40 MLOAD DUP1 DUP4 SUB DUP2 PUSH1 0x0 DUP8 DUP1 EXTCODESIZE ISZERO DUP1 ISZERO PUSH2 0x37A JUMPI PUSH1 0x0 DUP1 REVERT JUMPDEST PUSH1 0x40 MLOAD PUSH32 0x19457468657265756D205369676E6564204D6573736167653A0A333200000000 PUSH1 0x20 DUP3 ADD MSTORE PUSH1 0x3C DUP2 ADD DUP3 SWAP1 MSTORE PUSH1 0x0 SWAP1 PUSH1 0x5C ADD PUSH1 0x40 MLOAD PUSH1 0x20 DUP2 DUP4 SUB SUB DUP2 MSTORE SWAP1 PUSH1 0x40 MSTORE DUP1 MLOAD SWAP1 PUSH1 0x20 ADD KECCAK256 SWAP1 POP SWAP2 SWAP1 POP JUMP JUMPDEST PUSH1 0x60 PUSH1 0x0 PUSH2 0x467 PUSH2 0x7A1 JUMP JUMPDEST PUSH2 0x472 DUP6 DUP6 DUP6 PUSH2 0x811 JUMP JUMPDEST SWAP2 POP SWAP2 POP SWAP4 POP SWAP4 SWAP2 POP POP JUMP JUMPDEST PUSH2 0x486 PUSH2 0x774 JUMP JUMPDEST PUSH1 0x1 DUP1 SLOAD PUSH1 0x1 PUSH1 0x1 PUSH1 0xA0 SHL SUB NOT AND PUSH1 0x1 PUSH1 0x1 PUSH1 0xA0 SHL SUB SWAP3 SWAP1 SWAP3 AND SWAP2 SWAP1 SWAP2 OR SWAP1 SSTORE JUMP JUMPDEST PUSH2 0x4B0 PUSH2 0x774 JUMP JUMPDEST PUSH2 0x4BA PUSH1 0x0 PUSH2 0xA2D JUMP JUMPDEST JUMP JUMPDEST PUSH2 0x4C4 PUSH2 0x7A1 JUMP JUMPDEST PUSH2 0x4D1 DUP6 DUP6 DUP6 DUP6 DUP6 PUSH2 0xA7D JUMP JUMPDEST POP POP POP POP POP JUMP JUMPDEST PUSH2 0x4E0 PUSH2 0x774 JUMP JUMPDEST PUSH32 0x0 PUSH1 0x1 PUSH1 0x1 PUSH1 0xA0 SHL SUB AND PUSH4 0xBB9FE6BF PUSH1 0x40 MLOAD DUP2 PUSH4 0xFFFFFFFF AND PUSH1 0xE0 SHL DUP2 MSTORE PUSH1 0x4 ADD PUSH1 0x0 PUSH1 0x40 MLOAD DUP1 DUP4 SUB DUP2 PUSH1 0x0 DUP8 DUP1 EXTCODESIZE ISZERO DUP1 ISZERO PUSH2 0x53B JUMPI PUSH1 0x0 DUP1 REVERT JUMPDEST POP GAS CALL ISZERO DUP1 ISZERO PUSH2 0x54F JUMPI RETURNDATASIZE PUSH1 0x0 DUP1 RETURNDATACOPY RETURNDATASIZE PUSH1 0x0 REVERT JUMPDEST POP POP POP POP JUMP JUMPDEST PUSH2 0x55D PUSH2 0x774 JUMP JUMPDEST PUSH1 0x40 MLOAD PUSH4 0x611D2E75 PUSH1 0xE1 SHL DUP2 MSTORE PUSH1 0x1 PUSH1 0x1 PUSH1 0xA0 SHL SUB DUP3 DUP2 AND PUSH1 0x4 DUP4 ADD MSTORE PUSH32 0x0 AND SWAP1 PUSH4 0xC23A5CEA SWAP1 PUSH1 0x24 ADD PUSH1 0x0 PUSH1 0x40 MLOAD DUP1 DUP4 SUB DUP2 PUSH1 0x0 DUP8 DUP1 EXTCODESIZE ISZERO DUP1 ISZERO PUSH2 0x5C0 JUMPI PUSH1 0x0 DUP1 REVERT JUMPDEST POP GAS CALL ISZERO DUP1 ISZERO PUSH2 0x4D1 JUMPI RETURNDATASIZE PUSH1 0x0 DUP1 RETURNDATACOPY RETURNDATASIZE PUSH1 0x0 REVERT JUMPDEST PUSH1 0x40 MLOAD PUSH4 0x70A08231 PUSH1 0xE0 SHL DUP2 MSTORE ADDRESS PUSH1 0x4 DUP3 ADD MSTORE PUSH1 0x0 SWAP1 PUSH32 0x0 PUSH1 0x1 PUSH1 0x1 PUSH1 0xA0 SHL SUB AND SWAP1 PUSH4 0x70A08231 SWAP1 PUSH1 0x24 ADD PUSH1 0x20 PUSH1 0x40 MLOAD DUP1 DUP4 SUB DUP2 DUP7 GAS STATICCALL ISZERO DUP1 ISZERO PUSH2 0x63B JUMPI RETURNDATASIZE PUSH1 0x0 DUP1 RETURNDATACOPY RETURNDATASIZE PUSH1 0x0 REVERT JUMPDEST POP POP POP POP PUSH1 0x40 MLOAD RETURNDATASIZE PUSH1 0x1F NOT PUSH1 0x1F DUP3 ADD AND DUP3 ADD DUP1 PUSH1 0x40 MSTORE POP DUP2 ADD SWAP1 PUSH2 0x65F SWAP2 SWAP1 PUSH2 0xF05 JUMP JUMPDEST SWAP1 POP SWAP1 JUMP JUMPDEST PUSH1 0x40 MLOAD PUSH4 0xB760FAF9 PUSH1 0xE0 SHL DUP2 MSTORE ADDRESS PUSH1 0x4 DUP3 ADD MSTORE PUSH32 0x0 PUSH1 0x1 PUSH1 0x1 PUSH1 0xA0 SHL SUB AND SWAP1 PUSH4 0xB760FAF9 SWAP1 CALLVALUE SWAP1 PUSH1 0x24 ADD PUSH1 0x0 PUSH1 0x40 MLOAD DUP1 DUP4 SUB DUP2 DUP6 DUP9 DUP1 EXTCODESIZE ISZERO DUP1 ISZERO PUSH2 0x5C0 JUMPI PUSH1 0x0 DUP1 REVERT JUMPDEST PUSH1 0x0 DUP1 PUSH2 0x6D2 DUP6 PUSH2 0x408 JUMP JUMPDEST SWAP1 POP PUSH1 0x0 PUSH2 0x716 DUP3 DUP7 DUP7 DUP1 DUP1 PUSH1 0x1F ADD PUSH1 0x20 DUP1 SWAP2 DIV MUL PUSH1 0x20 ADD PUSH1 0x40 MLOAD SWAP1 DUP2 ADD PUSH1 0x40 MSTORE DUP1 SWAP4 SWAP3 SWAP2 SWAP1 DUP2 DUP2 MSTORE PUSH1 0x20 ADD DUP4 DUP4 DUP1 DUP3 DUP5 CALLDATACOPY PUSH1 0x0 SWAP3 ADD SWAP2 SWAP1 SWAP2 MSTORE POP PUSH2 0xAB5 SWAP3 POP POP POP JUMP JUMPDEST PUSH1 0x1 SLOAD PUSH1 0x1 PUSH1 0x1 PUSH1 0xA0 SHL SUB SWAP1 DUP2 AND SWAP2 AND EQ SWAP7 SWAP6 POP POP POP POP POP POP JUMP JUMPDEST PUSH2 0x739 PUSH2 0x774 JUMP JUMPDEST PUSH1 0x1 PUSH1 0x1 PUSH1 0xA0 SHL SUB DUP2 AND PUSH2 0x768 JUMPI PUSH1 0x40 MLOAD PUSH4 0x1E4FBDF7 PUSH1 0xE0 SHL DUP2 MSTORE PUSH1 0x0 PUSH1 0x4 DUP3 ADD MSTORE PUSH1 0x24 ADD JUMPDEST PUSH1 0x40 MLOAD DUP1 SWAP2 SUB SWAP1 REVERT JUMPDEST PUSH2 0x771 DUP2 PUSH2 0xA2D JUMP JUMPDEST POP JUMP JUMPDEST PUSH1 0x0 SLOAD PUSH1 0x1 PUSH1 0x1 PUSH1 0xA0 SHL SUB AND CALLER EQ PUSH2 0x4BA JUMPI PUSH1 0x40 MLOAD PUSH4 0x118CDAA7 PUSH1 0xE0 SHL DUP2 MSTORE CALLER PUSH1 0x4 DUP3 ADD MSTORE PUSH1 0x24 ADD PUSH2 0x75F JUMP JUMPDEST CALLER PUSH1 0x1 PUSH1 0x1 PUSH1 0xA0 SHL SUB PUSH32 0x0 AND EQ PUSH2 0x4BA JUMPI PUSH1 0x40 MLOAD PUSH3 0x461BCD PUSH1 0xE5 SHL DUP2 MSTORE PUSH1 0x20 PUSH1 0x4 DUP3 ADD MSTORE PUSH1 0x15 PUSH1 0x24 DUP3 ADD MSTORE PUSH21 0x14D95B99195C881B9BDD08115B9D1C9E541BDA5B9D PUSH1 0x5A SHL PUSH1 0x44 DUP3 ADD MSTORE PUSH1 0x64 ADD PUSH2 0x75F JUMP JUMPDEST PUSH1 0x40 MLOAD PUSH4 0x70A08231 PUSH1 0xE0 SHL DUP2 MSTORE ADDRESS PUSH1 0x4 DUP3 ADD MSTORE PUSH1 0x60 SWAP1 PUSH1 0x0 SWAP1 DUP4 SWAP1 PUSH1 0x1 PUSH1 0x1 PUSH1 0xA0 SHL SUB PUSH32 0x0 AND SWAP1 PUSH4 0x70A08231 SWAP1 PUSH1 0x24 ADD PUSH1 0x20 PUSH1 0x40 MLOAD DUP1 DUP4 SUB DUP2 DUP7 GAS STATICCALL ISZERO DUP1 ISZERO PUSH2 0x87D JUMPI RETURNDATASIZE PUSH1 0x0 DUP1 RETURNDATACOPY RETURNDATASIZE PUSH1 0x0 REVERT JUMPDEST POP POP POP POP PUSH1 0x40 MLOAD RETURNDATASIZE PUSH1 0x1F NOT PUSH1 0x1F DUP3 ADD AND DUP3 ADD DUP1 PUSH1 0x40 MSTORE POP DUP2 ADD SWAP1 PUSH2 0x8A1 SWAP2 SWAP1 PUSH2 0xF05 JUMP JUMPDEST LT ISZERO PUSH2 0x8EF JUMPI PUSH1 0x40 MLOAD PUSH3 0x461BCD PUSH1 0xE5 SHL DUP2 MSTORE PUSH1 0x20 PUSH1 0x4 DUP3 ADD MSTORE PUSH1 0x1C PUSH1 0x24 DUP3 ADD MSTORE PUSH32 0x496E73756666696369656E74206465706F73697420666F722067617300000000 PUSH1 0x44 DUP3 ADD MSTORE PUSH1 0x64 ADD PUSH2 0x75F JUMP JUMPDEST CALLDATASIZE PUSH1 0x0 PUSH2 0x8FF PUSH1 0xE0 DUP9 ADD DUP9 PUSH2 0xF1E JUMP JUMPDEST SWAP1 SWAP3 POP SWAP1 POP PUSH1 0x4D DUP2 LT ISZERO PUSH2 0x955 JUMPI PUSH1 0x40 MLOAD PUSH3 0x461BCD PUSH1 0xE5 SHL DUP2 MSTORE PUSH1 0x20 PUSH1 0x4 DUP3 ADD MSTORE PUSH1 0x1F PUSH1 0x24 DUP3 ADD MSTORE PUSH32 0x496E76616C6964207061796D6173746572416E6444617461206C656E67746800 PUSH1 0x44 DUP3 ADD MSTORE PUSH1 0x64 ADD PUSH2 0x75F JUMP JUMPDEST CALLDATASIZE PUSH1 0x0 PUSH2 0x965 DUP4 PUSH1 0xC DUP2 DUP8 PUSH2 0xF65 JUMP JUMPDEST SWAP2 POP SWAP2 POP PUSH1 0x0 PUSH2 0x974 DUP10 PUSH2 0x408 JUMP JUMPDEST SWAP1 POP PUSH1 0x0 PUSH2 0x9B8 DUP3 DUP6 DUP6 DUP1 DUP1 PUSH1 0x1F ADD PUSH1 0x20 DUP1 SWAP2 DIV MUL PUSH1 0x20 ADD PUSH1 0x40 MLOAD SWAP1 DUP2 ADD PUSH1 0x40 MSTORE DUP1 SWAP4 SWAP3 SWAP2 SWAP1 DUP2 DUP2 MSTORE PUSH1 0x20 ADD DUP4 DUP4 DUP1 DUP3 DUP5 CALLDATACOPY PUSH1 0x0 SWAP3 ADD SWAP2 SWAP1 SWAP2 MSTORE POP PUSH2 0xAB5 SWAP3 POP POP POP JUMP JUMPDEST PUSH1 0x1 SLOAD SWAP1 SWAP2 POP PUSH1 0x1 PUSH1 0x1 PUSH1 0xA0 SHL SUB DUP1 DUP4 AND SWAP2 AND EQ PUSH2 0xA0C JUMPI PUSH1 0x40 MLOAD PUSH3 0x461BCD PUSH1 0xE5 SHL DUP2 MSTORE PUSH1 0x20 PUSH1 0x4 DUP3 ADD MSTORE PUSH1 0x11 PUSH1 0x24 DUP3 ADD MSTORE PUSH17 0x496E76616C6964207369676E6174757265 PUSH1 0x78 SHL PUSH1 0x44 DUP3 ADD MSTORE PUSH1 0x64 ADD PUSH2 0x75F JUMP JUMPDEST POP POP PUSH1 0x40 DUP1 MLOAD PUSH1 0x0 DUP1 DUP3 MSTORE PUSH1 0x20 DUP3 ADD SWAP1 SWAP3 MSTORE SWAP11 SWAP1 SWAP10 POP SWAP8 POP POP POP POP POP POP POP POP JUMP JUMPDEST PUSH1 0x0 DUP1 SLOAD PUSH1 0x1 PUSH1 0x1 PUSH1 0xA0 SHL SUB DUP4 DUP2 AND PUSH1 0x1 PUSH1 0x1 PUSH1 0xA0 SHL SUB NOT DUP4 AND DUP2 OR DUP5 SSTORE PUSH1 0x40 MLOAD SWAP2 SWAP1 SWAP3 AND SWAP3 DUP4 SWAP2 PUSH32 0x8BE0079C531659141344CD1FD0A4F28419497F9722A3DAAFE3B4186F6B6457E0 SWAP2 SWAP1 LOG3 POP POP JUMP JUMPDEST PUSH1 0x40 MLOAD PUSH3 0x461BCD PUSH1 0xE5 SHL DUP2 MSTORE PUSH1 0x20 PUSH1 0x4 DUP3 ADD MSTORE PUSH1 0xD PUSH1 0x24 DUP3 ADD MSTORE PUSH13 0x6D757374206F76657272696465 PUSH1 0x98 SHL PUSH1 0x44 DUP3 ADD MSTORE PUSH1 0x64 ADD PUSH2 0x75F JUMP JUMPDEST PUSH1 0x0 DUP1 PUSH1 0x0 DUP1 PUSH2 0xAC5 DUP7 DUP7 PUSH2 0xADF JUMP JUMPDEST SWAP3 POP SWAP3 POP SWAP3 POP PUSH2 0xAD5 DUP3 DUP3 PUSH2 0xB2C JUMP JUMPDEST POP SWAP1 SWAP5 SWAP4 POP POP POP POP JUMP JUMPDEST PUSH1 0x0 DUP1 PUSH1 0x0 DUP4 MLOAD PUSH1 0x41 SUB PUSH2 0xB19 JUMPI PUSH1 0x20 DUP5 ADD MLOAD PUSH1 0x40 DUP6 ADD MLOAD PUSH1 0x60 DUP7 ADD MLOAD PUSH1 0x0 BYTE PUSH2 0xB0B DUP9 DUP3 DUP6 DUP6 PUSH2 0xBE9 JUMP JUMPDEST SWAP6 POP SWAP6 POP SWAP6 POP POP POP POP PUSH2 0xB25 JUMP JUMPDEST POP POP DUP2 MLOAD PUSH1 0x0 SWAP2 POP PUSH1 0x2 SWAP1 JUMPDEST SWAP3 POP SWAP3 POP SWAP3 JUMP JUMPDEST PUSH1 0x0 DUP3 PUSH1 0x3 DUP2 GT ISZERO PUSH2 0xB40 JUMPI PUSH2 0xB40 PUSH2 0xF8F JUMP JUMPDEST SUB PUSH2 0xB49 JUMPI POP POP JUMP JUMPDEST PUSH1 0x1 DUP3 PUSH1 0x3 DUP2 GT ISZERO PUSH2 0xB5D JUMPI PUSH2 0xB5D PUSH2 0xF8F JUMP JUMPDEST SUB PUSH2 0xB7B JUMPI PUSH1 0x40 MLOAD PUSH4 0xF645EEDF PUSH1 0xE0 SHL DUP2 MSTORE PUSH1 0x4 ADD PUSH1 0x40 MLOAD DUP1 SWAP2 SUB SWAP1 REVERT JUMPDEST PUSH1 0x2 DUP3 PUSH1 0x3 DUP2 GT ISZERO PUSH2 0xB8F JUMPI PUSH2 0xB8F PUSH2 0xF8F JUMP JUMPDEST SUB PUSH2 0xBB0 JUMPI PUSH1 0x40 MLOAD PUSH4 0xFCE698F7 PUSH1 0xE0 SHL DUP2 MSTORE PUSH1 0x4 DUP2 ADD DUP3 SWAP1 MSTORE PUSH1 0x24 ADD PUSH2 0x75F JUMP JUMPDEST PUSH1 0x3 DUP3 PUSH1 0x3 DUP2 GT ISZERO PUSH2 0xBC4 JUMPI PUSH2 0xBC4 PUSH2 0xF8F JUMP JUMPDEST SUB PUSH2 0xBE5 JUMPI PUSH1 0x40 MLOAD PUSH4 0x35E2F383 PUSH1 0xE2 SHL DUP2 MSTORE PUSH1 0x4 DUP2 ADD DUP3 SWAP1 MSTORE PUSH1 0x24 ADD PUSH2 0x75F JUMP JUMPDEST POP POP JUMP JUMPDEST PUSH1 0x0 DUP1 DUP1 PUSH32 0x7FFFFFFFFFFFFFFFFFFFFFFFFFFFFFFF5D576E7357A4501DDFE92F46681B20A0 DUP5 GT ISZERO PUSH2 0xC24 JUMPI POP PUSH1 0x0 SWAP2 POP PUSH1 0x3 SWAP1 POP DUP3 PUSH2 0xCAE JUMP JUMPDEST PUSH1 0x40 DUP1 MLOAD PUSH1 0x0 DUP1 DUP3 MSTORE PUSH1 0x20 DUP3 ADD DUP1 DUP5 MSTORE DUP11 SWAP1 MSTORE PUSH1 0xFF DUP10 AND SWAP3 DUP3 ADD SWAP3 SWAP1 SWAP3 MSTORE PUSH1 0x60 DUP2 ADD DUP8 SWAP1 MSTORE PUSH1 0x80 DUP2 ADD DUP7 SWAP1 MSTORE PUSH1 0x1 SWAP1 PUSH1 0xA0 ADD PUSH1 0x20 PUSH1 0x40 MLOAD PUSH1 0x20 DUP2 SUB SWAP1 DUP1 DUP5 SUB SWAP1 DUP6 GAS STATICCALL ISZERO DUP1 ISZERO PUSH2 0xC78 JUMPI RETURNDATASIZE PUSH1 0x0 DUP1 RETURNDATACOPY RETURNDATASIZE PUSH1 0x0 REVERT JUMPDEST POP POP PUSH1 0x40 MLOAD PUSH1 0x1F NOT ADD MLOAD SWAP2 POP POP PUSH1 0x1 PUSH1 0x1 PUSH1 0xA0 SHL SUB DUP2 AND PUSH2 0xCA4 JUMPI POP PUSH1 0x0 SWAP3 POP PUSH1 0x1 SWAP2 POP DUP3 SWAP1 POP PUSH2 0xCAE JUMP JUMPDEST SWAP3 POP PUSH1 0x0 SWAP2 POP DUP2 SWAP1 POP JUMPDEST SWAP5 POP SWAP5 POP SWAP5 SWAP2 POP POP JUMP JUMPDEST PUSH1 0x0 PUSH1 0x20 DUP3 DUP5 SUB SLT ISZERO PUSH2 0xCCA JUMPI PUSH1 0x0 DUP1 REVERT JUMPDEST DUP2 CALLDATALOAD PUSH4 0xFFFFFFFF DUP2 AND DUP2 EQ PUSH2 0xCDE JUMPI PUSH1 0x0 DUP1 REVERT JUMPDEST SWAP4 SWAP3 POP POP POP JUMP JUMPDEST PUSH1 0x1 PUSH1 0x1 PUSH1 0xA0 SHL SUB DUP2 AND DUP2 EQ PUSH2 0x771 JUMPI PUSH1 0x0 DUP1 REVERT JUMPDEST PUSH1 0x0 DUP1 PUSH1 0x40 DUP4 DUP6 SUB SLT ISZERO PUSH2 0xD0D JUMPI PUSH1 0x0 DUP1 REVERT JUMPDEST DUP3 CALLDATALOAD PUSH2 0xD18 DUP2 PUSH2 0xCE5 JUMP JUMPDEST SWAP5 PUSH1 0x20 SWAP4 SWAP1 SWAP4 ADD CALLDATALOAD SWAP4 POP POP POP JUMP JUMPDEST PUSH1 0x0 PUSH1 0x20 DUP3 DUP5 SUB SLT ISZERO PUSH2 0xD38 JUMPI PUSH1 0x0 DUP1 REVERT JUMPDEST POP CALLDATALOAD SWAP2 SWAP1 POP JUMP JUMPDEST PUSH1 0x0 DUP1 PUSH1 0x0 PUSH1 0x60 DUP5 DUP7 SUB SLT ISZERO PUSH2 0xD54 JUMPI PUSH1 0x0 DUP1 REVERT JUMPDEST DUP4 CALLDATALOAD PUSH8 0xFFFFFFFFFFFFFFFF DUP2 GT ISZERO PUSH2 0xD6B JUMPI PUSH1 0x0 DUP1 REVERT JUMPDEST DUP5 ADD PUSH2 0x120 DUP2 DUP8 SUB SLT ISZERO PUSH2 0xD7E JUMPI PUSH1 0x0 DUP1 REVERT JUMPDEST SWAP6 PUSH1 0x20 DUP6 ADD CALLDATALOAD SWAP6 POP PUSH1 0x40 SWAP1 SWAP5 ADD CALLDATALOAD SWAP4 SWAP3 POP POP POP JUMP JUMPDEST PUSH1 0x40 DUP2 MSTORE PUSH1 0x0 DUP4 MLOAD DUP1 PUSH1 0x40 DUP5 ADD MSTORE PUSH1 0x0 JUMPDEST DUP2 DUP2 LT ISZERO PUSH2 0xDC1 JUMPI PUSH1 0x20 DUP2 DUP8 ADD DUP2 ADD MLOAD PUSH1 0x60 DUP7 DUP5 ADD ADD MSTORE ADD PUSH2 0xDA4 JUMP JUMPDEST POP PUSH1 0x0 PUSH1 0x60 DUP3 DUP6 ADD ADD MSTORE PUSH1 0x60 PUSH1 0x1F NOT PUSH1 0x1F DUP4 ADD AND DUP5 ADD ADD SWAP2 POP POP DUP3 PUSH1 0x20 DUP4 ADD MSTORE SWAP4 SWAP3 POP POP POP JUMP JUMPDEST PUSH1 0x0 PUSH1 0x20 DUP3 DUP5 SUB SLT ISZERO PUSH2 0xDFA JUMPI PUSH1 0x0 DUP1 REVERT JUMPDEST DUP2 CALLDATALOAD PUSH2 0xCDE DUP2 PUSH2 0xCE5 JUMP JUMPDEST PUSH1 0x0 DUP1 DUP4 PUSH1 0x1F DUP5 ADD SLT PUSH2 0xE17 JUMPI PUSH1 0x0 DUP1 REVERT JUMPDEST POP DUP2 CALLDATALOAD PUSH8 0xFFFFFFFFFFFFFFFF DUP2 GT ISZERO PUSH2 0xE2F JUMPI PUSH1 0x0 DUP1 REVERT JUMPDEST PUSH1 0x20 DUP4 ADD SWAP2 POP DUP4 PUSH1 0x20 DUP3 DUP6 ADD ADD GT ISZERO PUSH2 0xE47 JUMPI PUSH1 0x0 DUP1 REVERT JUMPDEST SWAP3 POP SWAP3 SWAP1 POP JUMP JUMPDEST PUSH1 0x0 DUP1 PUSH1 0x0 DUP1 PUSH1 0x0 PUSH1 0x80 DUP7 DUP9 SUB SLT ISZERO PUSH2 0xE66 JUMPI PUSH1 0x0 DUP1 REVERT JUMPDEST DUP6 CALLDATALOAD PUSH1 0x3 DUP2 LT PUSH2 0xE75 JUMPI PUSH1 0x0 DUP1 REVERT JUMPDEST SWAP5 POP PUSH1 0x20 DUP7 ADD CALLDATALOAD PUSH8 0xFFFFFFFFFFFFFFFF DUP2 GT ISZERO PUSH2 0xE91 JUMPI PUSH1 0x0 DUP1 REVERT JUMPDEST PUSH2 0xE9D DUP9 DUP3 DUP10 ADD PUSH2 0xE05 JUMP JUMPDEST SWAP7 SWAP10 SWAP1 SWAP9 POP SWAP6 SWAP7 PUSH1 0x40 DUP2 ADD CALLDATALOAD SWAP7 PUSH1 0x60 SWAP1 SWAP2 ADD CALLDATALOAD SWAP6 POP SWAP4 POP POP POP POP JUMP JUMPDEST PUSH1 0x0 DUP1 PUSH1 0x0 PUSH1 0x40 DUP5 DUP7 SUB SLT ISZERO PUSH2 0xECE JUMPI PUSH1 0x0 DUP1 REVERT JUMPDEST DUP4 CALLDATALOAD SWAP3 POP PUSH1 0x20 DUP5 ADD CALLDATALOAD PUSH8 0xFFFFFFFFFFFFFFFF DUP2 GT ISZERO PUSH2 0xEEC JUMPI PUSH1 0x0 DUP1 REVERT JUMPDEST PUSH2 0xEF8 DUP7 DUP3 DUP8 ADD PUSH2 0xE05 JUMP JUMPDEST SWAP5 SWAP8 SWAP1 SWAP7 POP SWAP4 SWAP5 POP POP POP POP JUMP JUMPDEST PUSH1 0x0 PUSH1 0x20 DUP3 DUP5 SUB SLT ISZERO PUSH2 0xF17 JUMPI PUSH1 0x0 DUP1 REVERT JUMPDEST POP MLOAD SWAP2 SWAP1 POP JUMP JUMPDEST PUSH1 0x0 DUP1 DUP4 CALLDATALOAD PUSH1 0x1E NOT DUP5 CALLDATASIZE SUB ADD DUP2 SLT PUSH2 0xF35 JUMPI PUSH1 0x0 DUP1 REVERT JUMPDEST DUP4 ADD DUP1 CALLDATALOAD SWAP2 POP PUSH8 0xFFFFFFFFFFFFFFFF DUP3 GT ISZERO PUSH2 0xF50 JUMPI PUSH1 0x0 DUP1 REVERT JUMPDEST PUSH1 0x20 ADD SWAP2 POP CALLDATASIZE DUP2 SWAP1 SUB DUP3 SGT ISZERO PUSH2 0xE47 JUMPI PUSH1 0x0 DUP1 REVERT JUMPDEST PUSH1 0x0 DUP1 DUP6 DUP6 GT ISZERO PUSH2 0xF75 JUMPI PUSH1 0x0 DUP1 REVERT JUMPDEST DUP4 DUP7 GT ISZERO PUSH2 0xF82 JUMPI PUSH1 0x0 DUP1 REVERT JUMPDEST POP POP DUP3 ADD SWAP4 SWAP2 SWAP1 SWAP3 SUB SWAP2 POP JUMP JUMPDEST PUSH4 0x4E487B71 PUSH1 0xE0 SHL PUSH1 0x0 MSTORE PUSH1 0x21 PUSH1 0x4 MSTORE PUSH1 0x24 PUSH1 0x0 REVERT INVALID LOG2 PUSH5 0x6970667358 0x22 SLT KECCAK256 0xD6 MUL SWAP11 0xB4 SELFBALANCE 0x23 0xBA RETURN 0xD6 0xF8 0xAD POP PUSH13 0xF589EDB42A085A0A5DE9B4E68B 0xB3 0x28 PUSH4 0x6038BF64 PUSH20 0x6F6C634300081700330000000000000000000000 "},"methodIdentifiers":{"addStake(uint32)":"0396cb60","deposit()":"d0e30db0","entryPoint()":"b0d691fe","getDeposit()":"c399ec88","getHash(bytes32)":"3cf5040a","owner()":"8da5cb5b","postOp(uint8,bytes,uint256,uint256)":"7c627b21","renounceOwnership()":"715018a6","setTrustedSigner(address)":"56a1c701","transferOwnership(address)":"f2fde38b","trustedSigner()":"f74d5480","unlockStake()":"bb9fe6bf","validatePaymasterUserOp((address,uint256,bytes,bytes,bytes32,uint256,bytes32,bytes,bytes),bytes32,uint256)":"52b7512c","verifySignature(bytes32,bytes)":"daca6f78","withdrawStake(address)":"c23a5cea","withdrawTo(address,uint256)":"205c2878"}}}}}