{"contracts/SignatureVerifyingPaymaster.sol":{"VerifyingPaymaster":{"abi":[{"inputs":[{"internalType":"contract IEntryPoint","name":"_entryPoint","type":"address"},{"internalType":"address","name":"_trustedSigner","type":"address"}],"stateMutability":"nonpayable","type":"constructor"},{"inputs":[],"name":"ECDSAInvalidSignature","type":"error"},{"inputs":[{"internalType":"uint256","name":"length","type":"uint256"}],"name":"ECDSAInvalidSignatureLength","type":"error"},{"inputs":[{"internalType":"bytes32","name":"s","type":"bytes32"}],"name":"ECDSAInvalidSignatureS","type":"error"},{"inputs":[{"internalType":"address","name":"owner","type":"address"}],"name":"OwnableInvalidOwner","type":"error"},{"inputs":[{"internalType":"address","name":"account","type":"address"}],"name":"OwnableUnauthorizedAccount","type":"error"},{"anonymous":false,"inputs":[{"indexed":true,"internalType":"address","name":"previousOwner","type":"address"},{"indexed":true,"internalType":"address","name":"newOwner","type":"address"}],"name":"OwnershipTransferred","type":"event"},{"inputs":[{"internalType":"uint32","name":"unstakeDelaySec","type":"uint32"}],"name":"addStake","outputs":[],"stateMutability":"payable","type":"function"},{"inputs":[],"name":"deposit","outputs":[],"stateMutability":"payable","type":"function"},{"inputs":[],"name":"entryPoint","outputs":[{"internalType":"contract IEntryPoint","name":"","type":"address"}],"stateMutability":"view","type":"function"},{"inputs":[],"name":"getDeposit","outputs":[{"internalType":"uint256","name":"","type":"uint256"}],"stateMutability":"view","type":"function"},{"inputs":[],"name":"owner","outputs":[{"internalType":"address","name":"","type":"address"}],"stateMutability":"view","type":"function"},{"inputs":[{"internalType":"enum IPaymaster.PostOpMode","name":"mode","type":"uint8"},{"internalType":"bytes","name":"context","type":"bytes"},{"internalType":"uint256","name":"actualGasCost","type":"uint256"},{"internalType":"uint256","name":"actualUserOpFeePerGas","type":"uint256"}],"name":"postOp","outputs":[],"stateMutability":"nonpayable","type":"function"},{"inputs":[],"name":"renounceOwnership","outputs":[],"stateMutability":"nonpayable","type":"function"},{"inputs":[{"internalType":"address","name":"_trustedSigner","type":"address"}],"name":"setTrustedSigner","outputs":[],"stateMutability":"nonpayable","type":"function"},{"inputs":[{"internalType":"address","name":"newOwner","type":"address"}],"name":"transferOwnership","outputs":[],"stateMutability":"nonpayable","type":"function"},{"inputs":[],"name":"trustedSigner","outputs":[{"internalType":"address","name":"","type":"address"}],"stateMutability":"view","type":"function"},{"inputs":[],"name":"unlockStake","outputs":[],"stateMutability":"nonpayable","type":"function"},{"inputs":[{"components":[{"internalType":"address","name":"sender","type":"address"},{"internalType":"uint256","name":"nonce","type":"uint256"},{"internalType":"bytes","name":"initCode","type":"bytes"},{"internalType":"bytes","name":"callData","type":"bytes"},{"internalType":"bytes32","name":"accountGasLimits","type":"bytes32"},{"internalType":"uint256","name":"preVerificationGas","type":"uint256"},{"internalType":"bytes32","name":"gasFees","type":"bytes32"},{"internalType":"bytes","name":"paymasterAndData","type":"bytes"},{"internalType":"bytes","name":"signature","type":"bytes"}],"internalType":"struct PackedUserOperation","name":"userOp","type":"tuple"},{"internalType":"bytes32","name":"userOpHash","type":"bytes32"},{"internalType":"uint256","name":"maxCost","type":"uint256"}],"name":"validatePaymasterUserOp","outputs":[{"internalType":"bytes","name":"context","type":"bytes"},{"internalType":"uint256","name":"validationData","type":"uint256"}],"stateMutability":"nonpayable","type":"function"},{"inputs":[{"internalType":"address payable","name":"withdrawAddress","type":"address"}],"name":"withdrawStake","outputs":[],"stateMutability":"nonpayable","type":"function"},{"inputs":[{"internalType":"address payable","name":"withdrawAddress","type":"address"},{"internalType":"uint256","name":"amount","type":"uint256"}],"name":"withdrawTo","outputs":[],"stateMutability":"nonpayable","type":"function"}],"evm":{"bytecode":{"linkReferences":{},"object":"60a06040523480156200001157600080fd5b5060405162001187380380620011878339810160408190526200003491620001ca565b8133806200005d57604051631e4fbdf760e01b8152600060048201526024015b60405180910390fd5b6200006881620000a1565b506200007481620000f1565b6001600160a01b03908116608052600180546001600160a01b031916929091169190911790555062000234565b600080546001600160a01b038381166001600160a01b0319831681178455604051919092169283917f8be0079c531659141344cd1fd0a4f28419497f9722a3daafe3b4186f6b6457e09190a35050565b6040516301ffc9a760e01b815263122a0e9b60e31b60048201526001600160a01b038216906301ffc9a790602401602060405180830381865afa1580156200013d573d6000803e3d6000fd5b505050506040513d601f19601f8201168201806040525081019062000163919062000209565b620001b15760405162461bcd60e51b815260206004820152601e60248201527f49456e747279506f696e7420696e74657266616365206d69736d617463680000604482015260640162000054565b50565b6001600160a01b0381168114620001b157600080fd5b60008060408385031215620001de57600080fd5b8251620001eb81620001b4565b6020840151909250620001fe81620001b4565b809150509250929050565b6000602082840312156200021c57600080fd5b815180151581146200022d57600080fd5b9392505050565b608051610eff62000288600039600081816101e7015281816102cb015281816103620152818161042d015281816104c701528181610537015281816105c40152818161068c01526107160152610eff6000f3fe6080604052600436106100dd5760003560e01c8063b0d691fe1161007f578063c399ec8811610059578063c399ec881461023e578063d0e30db014610261578063f2fde38b14610269578063f74d54801461028957600080fd5b8063b0d691fe146101d5578063bb9fe6bf14610209578063c23a5cea1461021e57600080fd5b806356a1c701116100bb57806356a1c7011461014e578063715018a61461016e5780637c627b21146101835780638da5cb5b146101a357600080fd5b80630396cb60146100e2578063205c2878146100f757806352b7512c14610117575b600080fd5b6100f56100f0366004610c49565b6102a9565b005b34801561010357600080fd5b506100f5610112366004610c8b565b610334565b34801561012357600080fd5b50610137610132366004610cb7565b6103a6565b604051610145929190610d0b565b60405180910390f35b34801561015a57600080fd5b506100f5610169366004610d60565b6103c9565b34801561017a57600080fd5b506100f56103f3565b34801561018f57600080fd5b506100f561019e366004610d7d565b610407565b3480156101af57600080fd5b506000546001600160a01b03165b6040516001600160a01b039091168152602001610145565b3480156101e157600080fd5b506101bd7f000000000000000000000000000000000000000000000000000000000000000081565b34801561021557600080fd5b506100f5610423565b34801561022a57600080fd5b506100f5610239366004610d60565b6104a0565b34801561024a57600080fd5b5061025361051f565b604051908152602001610145565b6100f56105af565b34801561027557600080fd5b506100f5610284366004610d60565b610611565b34801561029557600080fd5b506001546101bd906001600160a01b031681565b6102b1610654565b604051621cb65b60e51b815263ffffffff821660048201527f00000000000000000000000000000000000000000000000000000000000000006001600160a01b031690630396cb609034906024016000604051808303818588803b15801561031857600080fd5b505af115801561032c573d6000803e3d6000fd5b505050505050565b61033c610654565b60405163040b850f60e31b81526001600160a01b038381166004830152602482018390527f0000000000000000000000000000000000000000000000000000000000000000169063205c287890604401600060405180830381600087803b15801561031857600080fd5b606060006103b2610681565b6103bd8585856106f1565b91509150935093915050565b6103d1610654565b600180546001600160a01b0319166001600160a01b0392909216919091179055565b6103fb610654565b61040560006109bc565b565b61040f610681565b61041c8585858585610a0c565b5050505050565b61042b610654565b7f00000000000000000000000000000000000000000000000000000000000000006001600160a01b031663bb9fe6bf6040518163ffffffff1660e01b8152600401600060405180830381600087803b15801561048657600080fd5b505af115801561049a573d6000803e3d6000fd5b50505050565b6104a8610654565b60405163611d2e7560e11b81526001600160a01b0382811660048301527f0000000000000000000000000000000000000000000000000000000000000000169063c23a5cea90602401600060405180830381600087803b15801561050b57600080fd5b505af115801561041c573d6000803e3d6000fd5b6040516370a0823160e01b81523060048201526000907f00000000000000000000000000000000000000000000000000000000000000006001600160a01b0316906370a0823190602401602060405180830381865afa158015610586573d6000803e3d6000fd5b505050506040513d601f19601f820116820180604052508101906105aa9190610e15565b905090565b60405163b760faf960e01b81523060048201527f00000000000000000000000000000000000000000000000000000000000000006001600160a01b03169063b760faf99034906024016000604051808303818588803b15801561050b57600080fd5b610619610654565b6001600160a01b03811661064857604051631e4fbdf760e01b8152600060048201526024015b60405180910390fd5b610651816109bc565b50565b6000546001600160a01b031633146104055760405163118cdaa760e01b815233600482015260240161063f565b336001600160a01b037f000000000000000000000000000000000000000000000000000000000000000016146104055760405162461bcd60e51b815260206004820152601560248201527414d95b99195c881b9bdd08115b9d1c9e541bda5b9d605a1b604482015260640161063f565b6040516370a0823160e01b815230600482015260609060009083906001600160a01b037f000000000000000000000000000000000000000000000000000000000000000016906370a0823190602401602060405180830381865afa15801561075d573d6000803e3d6000fd5b505050506040513d601f19601f820116820180604052508101906107819190610e15565b10156107cf5760405162461bcd60e51b815260206004820152601c60248201527f496e73756666696369656e74206465706f73697420666f722067617300000000604482015260640161063f565b60006107de60e0870187610e2e565b8080601f01602080910402602001604051908101604052809392919081815260200183838082843760009201919091525050825192935050604190911490506108695760405162461bcd60e51b815260206004820152601f60248201527f496e76616c6964207061796d6173746572416e6444617461206c656e67746800604482015260640161063f565b6040805181815260608101825260009160208201818036833701905050905060005b60408110156108ec57826108a0826001610e7c565b815181106108b0576108b0610e9d565b602001015160f81c60f81b8282815181106108cd576108cd610e9d565b60200101906001600160f81b031916908160001a90535060010161088b565b506040517f19457468657265756d205369676e6564204d6573736167653a0a3332000000006020820152603c8101879052600090605c0160408051601f198184030181529190528051602090910120905060006109498284610a44565b6001549091506001600160a01b0380831691161461099d5760405162461bcd60e51b8152602060048201526011602482015270496e76616c6964207369676e617475726560781b604482015260640161063f565b5050604080516000808252602082019092529890975095505050505050565b600080546001600160a01b038381166001600160a01b0319831681178455604051919092169283917f8be0079c531659141344cd1fd0a4f28419497f9722a3daafe3b4186f6b6457e09190a35050565b60405162461bcd60e51b815260206004820152600d60248201526c6d757374206f7665727269646560981b604482015260640161063f565b600080600080610a548686610a70565b925092509250610a648282610abd565b50909150505b92915050565b60008060008351604103610aaa5760208401516040850151606086015160001a610a9c88828585610b7a565b955095509550505050610ab6565b50508151600091506002905b9250925092565b6000826003811115610ad157610ad1610eb3565b03610ada575050565b6001826003811115610aee57610aee610eb3565b03610b0c5760405163f645eedf60e01b815260040160405180910390fd5b6002826003811115610b2057610b20610eb3565b03610b415760405163fce698f760e01b81526004810182905260240161063f565b6003826003811115610b5557610b55610eb3565b03610b76576040516335e2f38360e21b81526004810182905260240161063f565b5050565b600080807f7fffffffffffffffffffffffffffffff5d576e7357a4501ddfe92f46681b20a0841115610bb55750600091506003905082610c3f565b604080516000808252602082018084528a905260ff891692820192909252606081018790526080810186905260019060a0016020604051602081039080840390855afa158015610c09573d6000803e3d6000fd5b5050604051601f1901519150506001600160a01b038116610c3557506000925060019150829050610c3f565b9250600091508190505b9450945094915050565b600060208284031215610c5b57600080fd5b813563ffffffff81168114610c6f57600080fd5b9392505050565b6001600160a01b038116811461065157600080fd5b60008060408385031215610c9e57600080fd5b8235610ca981610c76565b946020939093013593505050565b600080600060608486031215610ccc57600080fd5b833567ffffffffffffffff811115610ce357600080fd5b84016101208187031215610cf657600080fd5b95602085013595506040909401359392505050565b604081526000835180604084015260005b81811015610d395760208187018101516060868401015201610d1c565b506000606082850101526060601f19601f8301168401019150508260208301529392505050565b600060208284031215610d7257600080fd5b8135610c6f81610c76565b600080600080600060808688031215610d9557600080fd5b853560038110610da457600080fd5b9450602086013567ffffffffffffffff80821115610dc157600080fd5b818801915088601f830112610dd557600080fd5b813581811115610de457600080fd5b896020828501011115610df657600080fd5b9699602092909201985095966040810135965060600135945092505050565b600060208284031215610e2757600080fd5b5051919050565b6000808335601e19843603018112610e4557600080fd5b83018035915067ffffffffffffffff821115610e6057600080fd5b602001915036819003821315610e7557600080fd5b9250929050565b80820180821115610a6a57634e487b7160e01b600052601160045260246000fd5b634e487b7160e01b600052603260045260246000fd5b634e487b7160e01b600052602160045260246000fdfea264697066735822122095a9b5a285b04073395775de6699c3c0ad54607eb7c6ed52367b02deefa665ad64736f6c63430008170033","opcodes":"PUSH1 0xA0 PUSH1 0x40 MSTORE CALLVALUE DUP1 ISZERO PUSH3 0x11 JUMPI PUSH1 0x0 DUP1 REVERT JUMPDEST POP PUSH1 0x40 MLOAD PUSH3 0x1187 CODESIZE SUB DUP1 PUSH3 0x1187 DUP4 CODECOPY DUP2 ADD PUSH1 0x40 DUP2 SWAP1 MSTORE PUSH3 0x34 SWAP2 PUSH3 0x1CA JUMP JUMPDEST DUP2 CALLER DUP1 PUSH3 0x5D JUMPI PUSH1 0x40 MLOAD PUSH4 0x1E4FBDF7 PUSH1 0xE0 SHL DUP2 MSTORE PUSH1 0x0 PUSH1 0x4 DUP3 ADD MSTORE PUSH1 0x24 ADD JUMPDEST PUSH1 0x40 MLOAD DUP1 SWAP2 SUB SWAP1 REVERT JUMPDEST PUSH3 0x68 DUP2 PUSH3 0xA1 JUMP JUMPDEST POP PUSH3 0x74 DUP2 PUSH3 0xF1 JUMP JUMPDEST PUSH1 0x1 PUSH1 0x1 PUSH1 0xA0 SHL SUB SWAP1 DUP2 AND PUSH1 0x80 MSTORE PUSH1 0x1 DUP1 SLOAD PUSH1 0x1 PUSH1 0x1 PUSH1 0xA0 SHL SUB NOT AND SWAP3 SWAP1 SWAP2 AND SWAP2 SWAP1 SWAP2 OR SWAP1 SSTORE POP PUSH3 0x234 JUMP JUMPDEST PUSH1 0x0 DUP1 SLOAD PUSH1 0x1 PUSH1 0x1 PUSH1 0xA0 SHL SUB DUP4 DUP2 AND PUSH1 0x1 PUSH1 0x1 PUSH1 0xA0 SHL SUB NOT DUP4 AND DUP2 OR DUP5 SSTORE PUSH1 0x40 MLOAD SWAP2 SWAP1 SWAP3 AND SWAP3 DUP4 SWAP2 PUSH32 0x8BE0079C531659141344CD1FD0A4F28419497F9722A3DAAFE3B4186F6B6457E0 SWAP2 SWAP1 LOG3 POP POP JUMP JUMPDEST PUSH1 0x40 MLOAD PUSH4 0x1FFC9A7 PUSH1 0xE0 SHL DUP2 MSTORE PUSH4 0x122A0E9B PUSH1 0xE3 SHL PUSH1 0x4 DUP3 ADD MSTORE PUSH1 0x1 PUSH1 0x1 PUSH1 0xA0 SHL SUB DUP3 AND SWAP1 PUSH4 0x1FFC9A7 SWAP1 PUSH1 0x24 ADD PUSH1 0x20 PUSH1 0x40 MLOAD DUP1 DUP4 SUB DUP2 DUP7 GAS STATICCALL ISZERO DUP1 ISZERO PUSH3 0x13D JUMPI RETURNDATASIZE PUSH1 0x0 DUP1 RETURNDATACOPY RETURNDATASIZE PUSH1 0x0 REVERT JUMPDEST POP POP POP POP PUSH1 0x40 MLOAD RETURNDATASIZE PUSH1 0x1F NOT PUSH1 0x1F DUP3 ADD AND DUP3 ADD DUP1 PUSH1 0x40 MSTORE POP DUP2 ADD SWAP1 PUSH3 0x163 SWAP2 SWAP1 PUSH3 0x209 JUMP JUMPDEST PUSH3 0x1B1 JUMPI PUSH1 0x40 MLOAD PUSH3 0x461BCD PUSH1 0xE5 SHL DUP2 MSTORE PUSH1 0x20 PUSH1 0x4 DUP3 ADD MSTORE PUSH1 0x1E PUSH1 0x24 DUP3 ADD MSTORE PUSH32 0x49456E747279506F696E7420696E74657266616365206D69736D617463680000 PUSH1 0x44 DUP3 ADD MSTORE PUSH1 0x64 ADD PUSH3 0x54 JUMP JUMPDEST POP JUMP JUMPDEST PUSH1 0x1 PUSH1 0x1 PUSH1 0xA0 SHL SUB DUP2 AND DUP2 EQ PUSH3 0x1B1 JUMPI PUSH1 0x0 DUP1 REVERT JUMPDEST PUSH1 0x0 DUP1 PUSH1 0x40 DUP4 DUP6 SUB SLT ISZERO PUSH3 0x1DE JUMPI PUSH1 0x0 DUP1 REVERT JUMPDEST DUP3 MLOAD PUSH3 0x1EB DUP2 PUSH3 0x1B4 JUMP JUMPDEST PUSH1 0x20 DUP5 ADD MLOAD SWAP1 SWAP3 POP PUSH3 0x1FE DUP2 PUSH3 0x1B4 JUMP JUMPDEST DUP1 SWAP2 POP POP SWAP3 POP SWAP3 SWAP1 POP JUMP JUMPDEST PUSH1 0x0 PUSH1 0x20 DUP3 DUP5 SUB SLT ISZERO PUSH3 0x21C JUMPI PUSH1 0x0 DUP1 REVERT JUMPDEST DUP2 MLOAD DUP1 ISZERO ISZERO DUP2 EQ PUSH3 0x22D JUMPI PUSH1 0x0 DUP1 REVERT JUMPDEST SWAP4 SWAP3 POP POP POP JUMP JUMPDEST PUSH1 0x80 MLOAD PUSH2 0xEFF PUSH3 0x288 PUSH1 0x0 CODECOPY PUSH1 0x0 DUP2 DUP2 PUSH2 0x1E7 ADD MSTORE DUP2 DUP2 PUSH2 0x2CB ADD MSTORE DUP2 DUP2 PUSH2 0x362 ADD MSTORE DUP2 DUP2 PUSH2 0x42D ADD MSTORE DUP2 DUP2 PUSH2 0x4C7 ADD MSTORE DUP2 DUP2 PUSH2 0x537 ADD MSTORE DUP2 DUP2 PUSH2 0x5C4 ADD MSTORE DUP2 DUP2 PUSH2 0x68C ADD MSTORE PUSH2 0x716 ADD MSTORE PUSH2 0xEFF PUSH1 0x0 RETURN INVALID PUSH1 0x80 PUSH1 0x40 MSTORE PUSH1 0x4 CALLDATASIZE LT PUSH2 0xDD JUMPI PUSH1 0x0 CALLDATALOAD PUSH1 0xE0 SHR DUP1 PUSH4 0xB0D691FE GT PUSH2 0x7F JUMPI DUP1 PUSH4 0xC399EC88 GT PUSH2 0x59 JUMPI DUP1 PUSH4 0xC399EC88 EQ PUSH2 0x23E JUMPI DUP1 PUSH4 0xD0E30DB0 EQ PUSH2 0x261 JUMPI DUP1 PUSH4 0xF2FDE38B EQ PUSH2 0x269 JUMPI DUP1 PUSH4 0xF74D5480 EQ PUSH2 0x289 JUMPI PUSH1 0x0 DUP1 REVERT JUMPDEST DUP1 PUSH4 0xB0D691FE EQ PUSH2 0x1D5 JUMPI DUP1 PUSH4 0xBB9FE6BF EQ PUSH2 0x209 JUMPI DUP1 PUSH4 0xC23A5CEA EQ PUSH2 0x21E JUMPI PUSH1 0x0 DUP1 REVERT JUMPDEST DUP1 PUSH4 0x56A1C701 GT PUSH2 0xBB JUMPI DUP1 PUSH4 0x56A1C701 EQ PUSH2 0x14E JUMPI DUP1 PUSH4 0x715018A6 EQ PUSH2 0x16E JUMPI DUP1 PUSH4 0x7C627B21 EQ PUSH2 0x183 JUMPI DUP1 PUSH4 0x8DA5CB5B EQ PUSH2 0x1A3 JUMPI PUSH1 0x0 DUP1 REVERT JUMPDEST DUP1 PUSH4 0x396CB60 EQ PUSH2 0xE2 JUMPI DUP1 PUSH4 0x205C2878 EQ PUSH2 0xF7 JUMPI DUP1 PUSH4 0x52B7512C EQ PUSH2 0x117 JUMPI JUMPDEST PUSH1 0x0 DUP1 REVERT JUMPDEST PUSH2 0xF5 PUSH2 0xF0 CALLDATASIZE PUSH1 0x4 PUSH2 0xC49 JUMP JUMPDEST PUSH2 0x2A9 JUMP JUMPDEST STOP JUMPDEST CALLVALUE DUP1 ISZERO PUSH2 0x103 JUMPI PUSH1 0x0 DUP1 REVERT JUMPDEST POP PUSH2 0xF5 PUSH2 0x112 CALLDATASIZE PUSH1 0x4 PUSH2 0xC8B JUMP JUMPDEST PUSH2 0x334 JUMP JUMPDEST CALLVALUE DUP1 ISZERO PUSH2 0x123 JUMPI PUSH1 0x0 DUP1 REVERT JUMPDEST POP PUSH2 0x137 PUSH2 0x132 CALLDATASIZE PUSH1 0x4 PUSH2 0xCB7 JUMP JUMPDEST PUSH2 0x3A6 JUMP JUMPDEST PUSH1 0x40 MLOAD PUSH2 0x145 SWAP3 SWAP2 SWAP1 PUSH2 0xD0B JUMP JUMPDEST PUSH1 0x40 MLOAD DUP1 SWAP2 SUB SWAP1 RETURN JUMPDEST CALLVALUE DUP1 ISZERO PUSH2 0x15A JUMPI PUSH1 0x0 DUP1 REVERT JUMPDEST POP PUSH2 0xF5 PUSH2 0x169 CALLDATASIZE PUSH1 0x4 PUSH2 0xD60 JUMP JUMPDEST PUSH2 0x3C9 JUMP JUMPDEST CALLVALUE DUP1 ISZERO PUSH2 0x17A JUMPI PUSH1 0x0 DUP1 REVERT JUMPDEST POP PUSH2 0xF5 PUSH2 0x3F3 JUMP JUMPDEST CALLVALUE DUP1 ISZERO PUSH2 0x18F JUMPI PUSH1 0x0 DUP1 REVERT JUMPDEST POP PUSH2 0xF5 PUSH2 0x19E CALLDATASIZE PUSH1 0x4 PUSH2 0xD7D JUMP JUMPDEST PUSH2 0x407 JUMP JUMPDEST CALLVALUE DUP1 ISZERO PUSH2 0x1AF JUMPI PUSH1 0x0 DUP1 REVERT JUMPDEST POP PUSH1 0x0 SLOAD PUSH1 0x1 PUSH1 0x1 PUSH1 0xA0 SHL SUB AND JUMPDEST PUSH1 0x40 MLOAD PUSH1 0x1 PUSH1 0x1 PUSH1 0xA0 SHL SUB SWAP1 SWAP2 AND DUP2 MSTORE PUSH1 0x20 ADD PUSH2 0x145 JUMP JUMPDEST CALLVALUE DUP1 ISZERO PUSH2 0x1E1 JUMPI PUSH1 0x0 DUP1 REVERT JUMPDEST POP PUSH2 0x1BD PUSH32 0x0 DUP2 JUMP JUMPDEST CALLVALUE DUP1 ISZERO PUSH2 0x215 JUMPI PUSH1 0x0 DUP1 REVERT JUMPDEST POP PUSH2 0xF5 PUSH2 0x423 JUMP JUMPDEST CALLVALUE DUP1 ISZERO PUSH2 0x22A JUMPI PUSH1 0x0 DUP1 REVERT JUMPDEST POP PUSH2 0xF5 PUSH2 0x239 CALLDATASIZE PUSH1 0x4 PUSH2 0xD60 JUMP JUMPDEST PUSH2 0x4A0 JUMP JUMPDEST CALLVALUE DUP1 ISZERO PUSH2 0x24A JUMPI PUSH1 0x0 DUP1 REVERT JUMPDEST POP PUSH2 0x253 PUSH2 0x51F JUMP JUMPDEST PUSH1 0x40 MLOAD SWAP1 DUP2 MSTORE PUSH1 0x20 ADD PUSH2 0x145 JUMP JUMPDEST PUSH2 0xF5 PUSH2 0x5AF JUMP JUMPDEST CALLVALUE DUP1 ISZERO PUSH2 0x275 JUMPI PUSH1 0x0 DUP1 REVERT JUMPDEST POP PUSH2 0xF5 PUSH2 0x284 CALLDATASIZE PUSH1 0x4 PUSH2 0xD60 JUMP JUMPDEST PUSH2 0x611 JUMP JUMPDEST CALLVALUE DUP1 ISZERO PUSH2 0x295 JUMPI PUSH1 0x0 DUP1 REVERT JUMPDEST POP PUSH1 0x1 SLOAD PUSH2 0x1BD SWAP1 PUSH1 0x1 PUSH1 0x1 PUSH1 0xA0 SHL SUB AND DUP2 JUMP JUMPDEST PUSH2 0x2B1 PUSH2 0x654 JUMP JUMPDEST PUSH1 0x40 MLOAD PUSH3 0x1CB65B PUSH1 0xE5 SHL DUP2 MSTORE PUSH4 0xFFFFFFFF DUP3 AND PUSH1 0x4 DUP3 ADD MSTORE PUSH32 0x0 PUSH1 0x1 PUSH1 0x1 PUSH1 0xA0 SHL SUB AND SWAP1 PUSH4 0x396CB60 SWAP1 CALLVALUE SWAP1 PUSH1 0x24 ADD PUSH1 0x0 PUSH1 0x40 MLOAD DUP1 DUP4 SUB DUP2 DUP6 DUP9 DUP1 EXTCODESIZE ISZERO DUP1 ISZERO PUSH2 0x318 JUMPI PUSH1 0x0 DUP1 REVERT JUMPDEST POP GAS CALL ISZERO DUP1 ISZERO PUSH2 0x32C JUMPI RETURNDATASIZE PUSH1 0x0 DUP1 RETURNDATACOPY RETURNDATASIZE PUSH1 0x0 REVERT JUMPDEST POP POP POP POP POP POP JUMP JUMPDEST PUSH2 0x33C PUSH2 0x654 JUMP JUMPDEST PUSH1 0x40 MLOAD PUSH4 0x40B850F PUSH1 0xE3 SHL DUP2 MSTORE PUSH1 0x1 PUSH1 0x1 PUSH1 0xA0 SHL SUB DUP4 DUP2 AND PUSH1 0x4 DUP4 ADD MSTORE PUSH1 0x24 DUP3 ADD DUP4 SWAP1 MSTORE PUSH32 0x0 AND SWAP1 PUSH4 0x205C2878 SWAP1 PUSH1 0x44 ADD PUSH1 0x0 PUSH1 0x40 MLOAD DUP1 DUP4 SUB DUP2 PUSH1 0x0 DUP8 DUP1 EXTCODESIZE ISZERO DUP1 ISZERO PUSH2 0x318 JUMPI PUSH1 0x0 DUP1 REVERT JUMPDEST PUSH1 0x60 PUSH1 0x0 PUSH2 0x3B2 PUSH2 0x681 JUMP JUMPDEST PUSH2 0x3BD DUP6 DUP6 DUP6 PUSH2 0x6F1 JUMP JUMPDEST SWAP2 POP SWAP2 POP SWAP4 POP SWAP4 SWAP2 POP POP JUMP JUMPDEST PUSH2 0x3D1 PUSH2 0x654 JUMP JUMPDEST PUSH1 0x1 DUP1 SLOAD PUSH1 0x1 PUSH1 0x1 PUSH1 0xA0 SHL SUB NOT AND PUSH1 0x1 PUSH1 0x1 PUSH1 0xA0 SHL SUB SWAP3 SWAP1 SWAP3 AND SWAP2 SWAP1 SWAP2 OR SWAP1 SSTORE JUMP JUMPDEST PUSH2 0x3FB PUSH2 0x654 JUMP JUMPDEST PUSH2 0x405 PUSH1 0x0 PUSH2 0x9BC JUMP JUMPDEST JUMP JUMPDEST PUSH2 0x40F PUSH2 0x681 JUMP JUMPDEST PUSH2 0x41C DUP6 DUP6 DUP6 DUP6 DUP6 PUSH2 0xA0C JUMP JUMPDEST POP POP POP POP POP JUMP JUMPDEST PUSH2 0x42B PUSH2 0x654 JUMP JUMPDEST PUSH32 0x0 PUSH1 0x1 PUSH1 0x1 PUSH1 0xA0 SHL SUB AND PUSH4 0xBB9FE6BF PUSH1 0x40 MLOAD DUP2 PUSH4 0xFFFFFFFF AND PUSH1 0xE0 SHL DUP2 MSTORE PUSH1 0x4 ADD PUSH1 0x0 PUSH1 0x40 MLOAD DUP1 DUP4 SUB DUP2 PUSH1 0x0 DUP8 DUP1 EXTCODESIZE ISZERO DUP1 ISZERO PUSH2 0x486 JUMPI PUSH1 0x0 DUP1 REVERT JUMPDEST POP GAS CALL ISZERO DUP1 ISZERO PUSH2 0x49A JUMPI RETURNDATASIZE PUSH1 0x0 DUP1 RETURNDATACOPY RETURNDATASIZE PUSH1 0x0 REVERT JUMPDEST POP POP POP POP JUMP JUMPDEST PUSH2 0x4A8 PUSH2 0x654 JUMP JUMPDEST PUSH1 0x40 MLOAD PUSH4 0x611D2E75 PUSH1 0xE1 SHL DUP2 MSTORE PUSH1 0x1 PUSH1 0x1 PUSH1 0xA0 SHL SUB DUP3 DUP2 AND PUSH1 0x4 DUP4 ADD MSTORE PUSH32 0x0 AND SWAP1 PUSH4 0xC23A5CEA SWAP1 PUSH1 0x24 ADD PUSH1 0x0 PUSH1 0x40 MLOAD DUP1 DUP4 SUB DUP2 PUSH1 0x0 DUP8 DUP1 EXTCODESIZE ISZERO DUP1 ISZERO PUSH2 0x50B JUMPI PUSH1 0x0 DUP1 REVERT JUMPDEST POP GAS CALL ISZERO DUP1 ISZERO PUSH2 0x41C JUMPI RETURNDATASIZE PUSH1 0x0 DUP1 RETURNDATACOPY RETURNDATASIZE PUSH1 0x0 REVERT JUMPDEST PUSH1 0x40 MLOAD PUSH4 0x70A08231 PUSH1 0xE0 SHL DUP2 MSTORE ADDRESS PUSH1 0x4 DUP3 ADD MSTORE PUSH1 0x0 SWAP1 PUSH32 0x0 PUSH1 0x1 PUSH1 0x1 PUSH1 0xA0 SHL SUB AND SWAP1 PUSH4 0x70A08231 SWAP1 PUSH1 0x24 ADD PUSH1 0x20 PUSH1 0x40 MLOAD DUP1 DUP4 SUB DUP2 DUP7 GAS STATICCALL ISZERO DUP1 ISZERO PUSH2 0x586 JUMPI RETURNDATASIZE PUSH1 0x0 DUP1 RETURNDATACOPY RETURNDATASIZE PUSH1 0x0 REVERT JUMPDEST POP POP POP POP PUSH1 0x40 MLOAD RETURNDATASIZE PUSH1 0x1F NOT PUSH1 0x1F DUP3 ADD AND DUP3 ADD DUP1 PUSH1 0x40 MSTORE POP DUP2 ADD SWAP1 PUSH2 0x5AA SWAP2 SWAP1 PUSH2 0xE15 JUMP JUMPDEST SWAP1 POP SWAP1 JUMP JUMPDEST PUSH1 0x40 MLOAD PUSH4 0xB760FAF9 PUSH1 0xE0 SHL DUP2 MSTORE ADDRESS PUSH1 0x4 DUP3 ADD MSTORE PUSH32 0x0 PUSH1 0x1 PUSH1 0x1 PUSH1 0xA0 SHL SUB AND SWAP1 PUSH4 0xB760FAF9 SWAP1 CALLVALUE SWAP1 PUSH1 0x24 ADD PUSH1 0x0 PUSH1 0x40 MLOAD DUP1 DUP4 SUB DUP2 DUP6 DUP9 DUP1 EXTCODESIZE ISZERO DUP1 ISZERO PUSH2 0x50B JUMPI PUSH1 0x0 DUP1 REVERT JUMPDEST PUSH2 0x619 PUSH2 0x654 JUMP JUMPDEST PUSH1 0x1 PUSH1 0x1 PUSH1 0xA0 SHL SUB DUP2 AND PUSH2 0x648 JUMPI PUSH1 0x40 MLOAD PUSH4 0x1E4FBDF7 PUSH1 0xE0 SHL DUP2 MSTORE PUSH1 0x0 PUSH1 0x4 DUP3 ADD MSTORE PUSH1 0x24 ADD JUMPDEST PUSH1 0x40 MLOAD DUP1 SWAP2 SUB SWAP1 REVERT JUMPDEST PUSH2 0x651 DUP2 PUSH2 0x9BC JUMP JUMPDEST POP JUMP JUMPDEST PUSH1 0x0 SLOAD PUSH1 0x1 PUSH1 0x1 PUSH1 0xA0 SHL SUB AND CALLER EQ PUSH2 0x405 JUMPI PUSH1 0x40 MLOAD PUSH4 0x118CDAA7 PUSH1 0xE0 SHL DUP2 MSTORE CALLER PUSH1 0x4 DUP3 ADD MSTORE PUSH1 0x24 ADD PUSH2 0x63F JUMP JUMPDEST CALLER PUSH1 0x1 PUSH1 0x1 PUSH1 0xA0 SHL SUB PUSH32 0x0 AND EQ PUSH2 0x405 JUMPI PUSH1 0x40 MLOAD PUSH3 0x461BCD PUSH1 0xE5 SHL DUP2 MSTORE PUSH1 0x20 PUSH1 0x4 DUP3 ADD MSTORE PUSH1 0x15 PUSH1 0x24 DUP3 ADD MSTORE PUSH21 0x14D95B99195C881B9BDD08115B9D1C9E541BDA5B9D PUSH1 0x5A SHL PUSH1 0x44 DUP3 ADD MSTORE PUSH1 0x64 ADD PUSH2 0x63F JUMP JUMPDEST PUSH1 0x40 MLOAD PUSH4 0x70A08231 PUSH1 0xE0 SHL DUP2 MSTORE ADDRESS PUSH1 0x4 DUP3 ADD MSTORE PUSH1 0x60 SWAP1 PUSH1 0x0 SWAP1 DUP4 SWAP1 PUSH1 0x1 PUSH1 0x1 PUSH1 0xA0 SHL SUB PUSH32 0x0 AND SWAP1 PUSH4 0x70A08231 SWAP1 PUSH1 0x24 ADD PUSH1 0x20 PUSH1 0x40 MLOAD DUP1 DUP4 SUB DUP2 DUP7 GAS STATICCALL ISZERO DUP1 ISZERO PUSH2 0x75D JUMPI RETURNDATASIZE PUSH1 0x0 DUP1 RETURNDATACOPY RETURNDATASIZE PUSH1 0x0 REVERT JUMPDEST POP POP POP POP PUSH1 0x40 MLOAD RETURNDATASIZE PUSH1 0x1F NOT PUSH1 0x1F DUP3 ADD AND DUP3 ADD DUP1 PUSH1 0x40 MSTORE POP DUP2 ADD SWAP1 PUSH2 0x781 SWAP2 SWAP1 PUSH2 0xE15 JUMP JUMPDEST LT ISZERO PUSH2 0x7CF JUMPI PUSH1 0x40 MLOAD PUSH3 0x461BCD PUSH1 0xE5 SHL DUP2 MSTORE PUSH1 0x20 PUSH1 0x4 DUP3 ADD MSTORE PUSH1 0x1C PUSH1 0x24 DUP3 ADD MSTORE PUSH32 0x496E73756666696369656E74206465706F73697420666F722067617300000000 PUSH1 0x44 DUP3 ADD MSTORE PUSH1 0x64 ADD PUSH2 0x63F JUMP JUMPDEST PUSH1 0x0 PUSH2 0x7DE PUSH1 0xE0 DUP8 ADD DUP8 PUSH2 0xE2E JUMP JUMPDEST DUP1 DUP1 PUSH1 0x1F ADD PUSH1 0x20 DUP1 SWAP2 DIV MUL PUSH1 0x20 ADD PUSH1 0x40 MLOAD SWAP1 DUP2 ADD PUSH1 0x40 MSTORE DUP1 SWAP4 SWAP3 SWAP2 SWAP1 DUP2 DUP2 MSTORE PUSH1 0x20 ADD DUP4 DUP4 DUP1 DUP3 DUP5 CALLDATACOPY PUSH1 0x0 SWAP3 ADD SWAP2 SWAP1 SWAP2 MSTORE POP POP DUP3 MLOAD SWAP3 SWAP4 POP POP PUSH1 0x41 SWAP1 SWAP2 EQ SWAP1 POP PUSH2 0x869 JUMPI PUSH1 0x40 MLOAD PUSH3 0x461BCD PUSH1 0xE5 SHL DUP2 MSTORE PUSH1 0x20 PUSH1 0x4 DUP3 ADD MSTORE PUSH1 0x1F PUSH1 0x24 DUP3 ADD MSTORE PUSH32 0x496E76616C6964207061796D6173746572416E6444617461206C656E67746800 PUSH1 0x44 DUP3 ADD MSTORE PUSH1 0x64 ADD PUSH2 0x63F JUMP JUMPDEST PUSH1 0x40 DUP1 MLOAD DUP2 DUP2 MSTORE PUSH1 0x60 DUP2 ADD DUP3 MSTORE PUSH1 0x0 SWAP2 PUSH1 0x20 DUP3 ADD DUP2 DUP1 CALLDATASIZE DUP4 CALLDATACOPY ADD SWAP1 POP POP SWAP1 POP PUSH1 0x0 JUMPDEST PUSH1 0x40 DUP2 LT ISZERO PUSH2 0x8EC JUMPI DUP3 PUSH2 0x8A0 DUP3 PUSH1 0x1 PUSH2 0xE7C JUMP JUMPDEST DUP2 MLOAD DUP2 LT PUSH2 0x8B0 JUMPI PUSH2 0x8B0 PUSH2 0xE9D JUMP JUMPDEST PUSH1 0x20 ADD ADD MLOAD PUSH1 0xF8 SHR PUSH1 0xF8 SHL DUP3 DUP3 DUP2 MLOAD DUP2 LT PUSH2 0x8CD JUMPI PUSH2 0x8CD PUSH2 0xE9D JUMP JUMPDEST PUSH1 0x20 ADD ADD SWAP1 PUSH1 0x1 PUSH1 0x1 PUSH1 0xF8 SHL SUB NOT AND SWAP1 DUP2 PUSH1 0x0 BYTE SWAP1 MSTORE8 POP PUSH1 0x1 ADD PUSH2 0x88B JUMP JUMPDEST POP PUSH1 0x40 MLOAD PUSH32 0x19457468657265756D205369676E6564204D6573736167653A0A333200000000 PUSH1 0x20 DUP3 ADD MSTORE PUSH1 0x3C DUP2 ADD DUP8 SWAP1 MSTORE PUSH1 0x0 SWAP1 PUSH1 0x5C ADD PUSH1 0x40 DUP1 MLOAD PUSH1 0x1F NOT DUP2 DUP5 SUB ADD DUP2 MSTORE SWAP2 SWAP1 MSTORE DUP1 MLOAD PUSH1 0x20 SWAP1 SWAP2 ADD KECCAK256 SWAP1 POP PUSH1 0x0 PUSH2 0x949 DUP3 DUP5 PUSH2 0xA44 JUMP JUMPDEST PUSH1 0x1 SLOAD SWAP1 SWAP2 POP PUSH1 0x1 PUSH1 0x1 PUSH1 0xA0 SHL SUB DUP1 DUP4 AND SWAP2 AND EQ PUSH2 0x99D JUMPI PUSH1 0x40 MLOAD PUSH3 0x461BCD PUSH1 0xE5 SHL DUP2 MSTORE PUSH1 0x20 PUSH1 0x4 DUP3 ADD MSTORE PUSH1 0x11 PUSH1 0x24 DUP3 ADD MSTORE PUSH17 0x496E76616C6964207369676E6174757265 PUSH1 0x78 SHL PUSH1 0x44 DUP3 ADD MSTORE PUSH1 0x64 ADD PUSH2 0x63F JUMP JUMPDEST POP POP PUSH1 0x40 DUP1 MLOAD PUSH1 0x0 DUP1 DUP3 MSTORE PUSH1 0x20 DUP3 ADD SWAP1 SWAP3 MSTORE SWAP9 SWAP1 SWAP8 POP SWAP6 POP POP POP POP POP POP JUMP JUMPDEST PUSH1 0x0 DUP1 SLOAD PUSH1 0x1 PUSH1 0x1 PUSH1 0xA0 SHL SUB DUP4 DUP2 AND PUSH1 0x1 PUSH1 0x1 PUSH1 0xA0 SHL SUB NOT DUP4 AND DUP2 OR DUP5 SSTORE PUSH1 0x40 MLOAD SWAP2 SWAP1 SWAP3 AND SWAP3 DUP4 SWAP2 PUSH32 0x8BE0079C531659141344CD1FD0A4F28419497F9722A3DAAFE3B4186F6B6457E0 SWAP2 SWAP1 LOG3 POP POP JUMP JUMPDEST PUSH1 0x40 MLOAD PUSH3 0x461BCD PUSH1 0xE5 SHL DUP2 MSTORE PUSH1 0x20 PUSH1 0x4 DUP3 ADD MSTORE PUSH1 0xD PUSH1 0x24 DUP3 ADD MSTORE PUSH13 0x6D757374206F76657272696465 PUSH1 0x98 SHL PUSH1 0x44 DUP3 ADD MSTORE PUSH1 0x64 ADD PUSH2 0x63F JUMP JUMPDEST PUSH1 0x0 DUP1 PUSH1 0x0 DUP1 PUSH2 0xA54 DUP7 DUP7 PUSH2 0xA70 JUMP JUMPDEST SWAP3 POP SWAP3 POP SWAP3 POP PUSH2 0xA64 DUP3 DUP3 PUSH2 0xABD JUMP JUMPDEST POP SWAP1 SWAP2 POP POP JUMPDEST SWAP3 SWAP2 POP POP JUMP JUMPDEST PUSH1 0x0 DUP1 PUSH1 0x0 DUP4 MLOAD PUSH1 0x41 SUB PUSH2 0xAAA JUMPI PUSH1 0x20 DUP5 ADD MLOAD PUSH1 0x40 DUP6 ADD MLOAD PUSH1 0x60 DUP7 ADD MLOAD PUSH1 0x0 BYTE PUSH2 0xA9C DUP9 DUP3 DUP6 DUP6 PUSH2 0xB7A JUMP JUMPDEST SWAP6 POP SWAP6 POP SWAP6 POP POP POP POP PUSH2 0xAB6 JUMP JUMPDEST POP POP DUP2 MLOAD PUSH1 0x0 SWAP2 POP PUSH1 0x2 SWAP1 JUMPDEST SWAP3 POP SWAP3 POP SWAP3 JUMP JUMPDEST PUSH1 0x0 DUP3 PUSH1 0x3 DUP2 GT ISZERO PUSH2 0xAD1 JUMPI PUSH2 0xAD1 PUSH2 0xEB3 JUMP JUMPDEST SUB PUSH2 0xADA JUMPI POP POP JUMP JUMPDEST PUSH1 0x1 DUP3 PUSH1 0x3 DUP2 GT ISZERO PUSH2 0xAEE JUMPI PUSH2 0xAEE PUSH2 0xEB3 JUMP JUMPDEST SUB PUSH2 0xB0C JUMPI PUSH1 0x40 MLOAD PUSH4 0xF645EEDF PUSH1 0xE0 SHL DUP2 MSTORE PUSH1 0x4 ADD PUSH1 0x40 MLOAD DUP1 SWAP2 SUB SWAP1 REVERT JUMPDEST PUSH1 0x2 DUP3 PUSH1 0x3 DUP2 GT ISZERO PUSH2 0xB20 JUMPI PUSH2 0xB20 PUSH2 0xEB3 JUMP JUMPDEST SUB PUSH2 0xB41 JUMPI PUSH1 0x40 MLOAD PUSH4 0xFCE698F7 PUSH1 0xE0 SHL DUP2 MSTORE PUSH1 0x4 DUP2 ADD DUP3 SWAP1 MSTORE PUSH1 0x24 ADD PUSH2 0x63F JUMP JUMPDEST PUSH1 0x3 DUP3 PUSH1 0x3 DUP2 GT ISZERO PUSH2 0xB55 JUMPI PUSH2 0xB55 PUSH2 0xEB3 JUMP JUMPDEST SUB PUSH2 0xB76 JUMPI PUSH1 0x40 MLOAD PUSH4 0x35E2F383 PUSH1 0xE2 SHL DUP2 MSTORE PUSH1 0x4 DUP2 ADD DUP3 SWAP1 MSTORE PUSH1 0x24 ADD PUSH2 0x63F JUMP JUMPDEST POP POP JUMP JUMPDEST PUSH1 0x0 DUP1 DUP1 PUSH32 0x7FFFFFFFFFFFFFFFFFFFFFFFFFFFFFFF5D576E7357A4501DDFE92F46681B20A0 DUP5 GT ISZERO PUSH2 0xBB5 JUMPI POP PUSH1 0x0 SWAP2 POP PUSH1 0x3 SWAP1 POP DUP3 PUSH2 0xC3F JUMP JUMPDEST PUSH1 0x40 DUP1 MLOAD PUSH1 0x0 DUP1 DUP3 MSTORE PUSH1 0x20 DUP3 ADD DUP1 DUP5 MSTORE DUP11 SWAP1 MSTORE PUSH1 0xFF DUP10 AND SWAP3 DUP3 ADD SWAP3 SWAP1 SWAP3 MSTORE PUSH1 0x60 DUP2 ADD DUP8 SWAP1 MSTORE PUSH1 0x80 DUP2 ADD DUP7 SWAP1 MSTORE PUSH1 0x1 SWAP1 PUSH1 0xA0 ADD PUSH1 0x20 PUSH1 0x40 MLOAD PUSH1 0x20 DUP2 SUB SWAP1 DUP1 DUP5 SUB SWAP1 DUP6 GAS STATICCALL ISZERO DUP1 ISZERO PUSH2 0xC09 JUMPI RETURNDATASIZE PUSH1 0x0 DUP1 RETURNDATACOPY RETURNDATASIZE PUSH1 0x0 REVERT JUMPDEST POP POP PUSH1 0x40 MLOAD PUSH1 0x1F NOT ADD MLOAD SWAP2 POP POP PUSH1 0x1 PUSH1 0x1 PUSH1 0xA0 SHL SUB DUP2 AND PUSH2 0xC35 JUMPI POP PUSH1 0x0 SWAP3 POP PUSH1 0x1 SWAP2 POP DUP3 SWAP1 POP PUSH2 0xC3F JUMP JUMPDEST SWAP3 POP PUSH1 0x0 SWAP2 POP DUP2 SWAP1 POP JUMPDEST SWAP5 POP SWAP5 POP SWAP5 SWAP2 POP POP JUMP JUMPDEST PUSH1 0x0 PUSH1 0x20 DUP3 DUP5 SUB SLT ISZERO PUSH2 0xC5B JUMPI PUSH1 0x0 DUP1 REVERT JUMPDEST DUP2 CALLDATALOAD PUSH4 0xFFFFFFFF DUP2 AND DUP2 EQ PUSH2 0xC6F JUMPI PUSH1 0x0 DUP1 REVERT JUMPDEST SWAP4 SWAP3 POP POP POP JUMP JUMPDEST PUSH1 0x1 PUSH1 0x1 PUSH1 0xA0 SHL SUB DUP2 AND DUP2 EQ PUSH2 0x651 JUMPI PUSH1 0x0 DUP1 REVERT JUMPDEST PUSH1 0x0 DUP1 PUSH1 0x40 DUP4 DUP6 SUB SLT ISZERO PUSH2 0xC9E JUMPI PUSH1 0x0 DUP1 REVERT JUMPDEST DUP3 CALLDATALOAD PUSH2 0xCA9 DUP2 PUSH2 0xC76 JUMP JUMPDEST SWAP5 PUSH1 0x20 SWAP4 SWAP1 SWAP4 ADD CALLDATALOAD SWAP4 POP POP POP JUMP JUMPDEST PUSH1 0x0 DUP1 PUSH1 0x0 PUSH1 0x60 DUP5 DUP7 SUB SLT ISZERO PUSH2 0xCCC JUMPI PUSH1 0x0 DUP1 REVERT JUMPDEST DUP4 CALLDATALOAD PUSH8 0xFFFFFFFFFFFFFFFF DUP2 GT ISZERO PUSH2 0xCE3 JUMPI PUSH1 0x0 DUP1 REVERT JUMPDEST DUP5 ADD PUSH2 0x120 DUP2 DUP8 SUB SLT ISZERO PUSH2 0xCF6 JUMPI PUSH1 0x0 DUP1 REVERT JUMPDEST SWAP6 PUSH1 0x20 DUP6 ADD CALLDATALOAD SWAP6 POP PUSH1 0x40 SWAP1 SWAP5 ADD CALLDATALOAD SWAP4 SWAP3 POP POP POP JUMP JUMPDEST PUSH1 0x40 DUP2 MSTORE PUSH1 0x0 DUP4 MLOAD DUP1 PUSH1 0x40 DUP5 ADD MSTORE PUSH1 0x0 JUMPDEST DUP2 DUP2 LT ISZERO PUSH2 0xD39 JUMPI PUSH1 0x20 DUP2 DUP8 ADD DUP2 ADD MLOAD PUSH1 0x60 DUP7 DUP5 ADD ADD MSTORE ADD PUSH2 0xD1C JUMP JUMPDEST POP PUSH1 0x0 PUSH1 0x60 DUP3 DUP6 ADD ADD MSTORE PUSH1 0x60 PUSH1 0x1F NOT PUSH1 0x1F DUP4 ADD AND DUP5 ADD ADD SWAP2 POP POP DUP3 PUSH1 0x20 DUP4 ADD MSTORE SWAP4 SWAP3 POP POP POP JUMP JUMPDEST PUSH1 0x0 PUSH1 0x20 DUP3 DUP5 SUB SLT ISZERO PUSH2 0xD72 JUMPI PUSH1 0x0 DUP1 REVERT JUMPDEST DUP2 CALLDATALOAD PUSH2 0xC6F DUP2 PUSH2 0xC76 JUMP JUMPDEST PUSH1 0x0 DUP1 PUSH1 0x0 DUP1 PUSH1 0x0 PUSH1 0x80 DUP7 DUP9 SUB SLT ISZERO PUSH2 0xD95 JUMPI PUSH1 0x0 DUP1 REVERT JUMPDEST DUP6 CALLDATALOAD PUSH1 0x3 DUP2 LT PUSH2 0xDA4 JUMPI PUSH1 0x0 DUP1 REVERT JUMPDEST SWAP5 POP PUSH1 0x20 DUP7 ADD CALLDATALOAD PUSH8 0xFFFFFFFFFFFFFFFF DUP1 DUP3 GT ISZERO PUSH2 0xDC1 JUMPI PUSH1 0x0 DUP1 REVERT JUMPDEST DUP2 DUP9 ADD SWAP2 POP DUP9 PUSH1 0x1F DUP4 ADD SLT PUSH2 0xDD5 JUMPI PUSH1 0x0 DUP1 REVERT JUMPDEST DUP2 CALLDATALOAD DUP2 DUP2 GT ISZERO PUSH2 0xDE4 JUMPI PUSH1 0x0 DUP1 REVERT JUMPDEST DUP10 PUSH1 0x20 DUP3 DUP6 ADD ADD GT ISZERO PUSH2 0xDF6 JUMPI PUSH1 0x0 DUP1 REVERT JUMPDEST SWAP7 SWAP10 PUSH1 0x20 SWAP3 SWAP1 SWAP3 ADD SWAP9 POP SWAP6 SWAP7 PUSH1 0x40 DUP2 ADD CALLDATALOAD SWAP7 POP PUSH1 0x60 ADD CALLDATALOAD SWAP5 POP SWAP3 POP POP POP JUMP JUMPDEST PUSH1 0x0 PUSH1 0x20 DUP3 DUP5 SUB SLT ISZERO PUSH2 0xE27 JUMPI PUSH1 0x0 DUP1 REVERT JUMPDEST POP MLOAD SWAP2 SWAP1 POP JUMP JUMPDEST PUSH1 0x0 DUP1 DUP4 CALLDATALOAD PUSH1 0x1E NOT DUP5 CALLDATASIZE SUB ADD DUP2 SLT PUSH2 0xE45 JUMPI PUSH1 0x0 DUP1 REVERT JUMPDEST DUP4 ADD DUP1 CALLDATALOAD SWAP2 POP PUSH8 0xFFFFFFFFFFFFFFFF DUP3 GT ISZERO PUSH2 0xE60 JUMPI PUSH1 0x0 DUP1 REVERT JUMPDEST PUSH1 0x20 ADD SWAP2 POP CALLDATASIZE DUP2 SWAP1 SUB DUP3 SGT ISZERO PUSH2 0xE75 JUMPI PUSH1 0x0 DUP1 REVERT JUMPDEST SWAP3 POP SWAP3 SWAP1 POP JUMP JUMPDEST DUP1 DUP3 ADD DUP1 DUP3 GT ISZERO PUSH2 0xA6A JUMPI PUSH4 0x4E487B71 PUSH1 0xE0 SHL PUSH1 0x0 MSTORE PUSH1 0x11 PUSH1 0x4 MSTORE PUSH1 0x24 PUSH1 0x0 REVERT JUMPDEST PUSH4 0x4E487B71 PUSH1 0xE0 SHL PUSH1 0x0 MSTORE PUSH1 0x32 PUSH1 0x4 MSTORE PUSH1 0x24 PUSH1 0x0 REVERT JUMPDEST PUSH4 0x4E487B71 PUSH1 0xE0 SHL PUSH1 0x0 MSTORE PUSH1 0x21 PUSH1 0x4 MSTORE PUSH1 0x24 PUSH1 0x0 REVERT INVALID LOG2 PUSH5 0x6970667358 0x22 SLT KECCAK256 SWAP6 0xA9 0xB5 LOG2 DUP6 0xB0 BLOCKHASH PUSH20 0x395775DE6699C3C0AD54607EB7C6ED52367B02DE 0xEF 0xA6 PUSH6 0xAD64736F6C63 NUMBER STOP ADDMOD OR STOP CALLER "},"methodIdentifiers":{"addStake(uint32)":"0396cb60","deposit()":"d0e30db0","entryPoint()":"b0d691fe","getDeposit()":"c399ec88","owner()":"8da5cb5b","postOp(uint8,bytes,uint256,uint256)":"7c627b21","renounceOwnership()":"715018a6","setTrustedSigner(address)":"56a1c701","transferOwnership(address)":"f2fde38b","trustedSigner()":"f74d5480","unlockStake()":"bb9fe6bf","validatePaymasterUserOp((address,uint256,bytes,bytes,bytes32,uint256,bytes32,bytes,bytes),bytes32,uint256)":"52b7512c","withdrawStake(address)":"c23a5cea","withdrawTo(address,uint256)":"205c2878"}}}}}