{
  "_format": "hh-sol-artifact-1",
  "contractName": "SampleNFT",
  "sourceName": "contracts/SampleNFT.sol",
  "abi": [
    {
      "inputs": [
        {
          "internalType": "string",
          "name": "name",
          "type": "string"
        },
        {
          "internalType": "string",
          "name": "symbol",
          "type": "string"
        }
      ],
      "stateMutability": "nonpayable",
      "type": "constructor"
    },
    {
      "inputs": [
        {
          "internalType": "address",
          "name": "sender",
          "type": "address"
        },
        {
          "internalType": "uint256",
          "name": "tokenId",
          "type": "uint256"
        },
        {
          "internalType": "address",
          "name": "owner",
          "type": "address"
        }
      ],
      "name": "ERC721IncorrectOwner",
      "type": "error"
    },
    {
      "inputs": [
        {
          "internalType": "address",
          "name": "operator",
          "type": "address"
        },
        {
          "internalType": "uint256",
          "name": "tokenId",
          "type": "uint256"
        }
      ],
      "name": "ERC721InsufficientApproval",
      "type": "error"
    },
    {
      "inputs": [
        {
          "internalType": "address",
          "name": "approver",
          "type": "address"
        }
      ],
      "name": "ERC721InvalidApprover",
      "type": "error"
    },
    {
      "inputs": [
        {
          "internalType": "address",
          "name": "operator",
          "type": "address"
        }
      ],
      "name": "ERC721InvalidOperator",
      "type": "error"
    },
    {
      "inputs": [
        {
          "internalType": "address",
          "name": "owner",
          "type": "address"
        }
      ],
      "name": "ERC721InvalidOwner",
      "type": "error"
    },
    {
      "inputs": [
        {
          "internalType": "address",
          "name": "receiver",
          "type": "address"
        }
      ],
      "name": "ERC721InvalidReceiver",
      "type": "error"
    },
    {
      "inputs": [
        {
          "internalType": "address",
          "name": "sender",
          "type": "address"
        }
      ],
      "name": "ERC721InvalidSender",
      "type": "error"
    },
    {
      "inputs": [
        {
          "internalType": "uint256",
          "name": "tokenId",
          "type": "uint256"
        }
      ],
      "name": "ERC721NonexistentToken",
      "type": "error"
    },
    {
      "inputs": [
        {
          "internalType": "address",
          "name": "owner",
          "type": "address"
        }
      ],
      "name": "OwnableInvalidOwner",
      "type": "error"
    },
    {
      "inputs": [
        {
          "internalType": "address",
          "name": "account",
          "type": "address"
        }
      ],
      "name": "OwnableUnauthorizedAccount",
      "type": "error"
    },
    {
      "anonymous": false,
      "inputs": [
        {
          "indexed": true,
          "internalType": "address",
          "name": "owner",
          "type": "address"
        },
        {
          "indexed": true,
          "internalType": "address",
          "name": "approved",
          "type": "address"
        },
        {
          "indexed": true,
          "internalType": "uint256",
          "name": "tokenId",
          "type": "uint256"
        }
      ],
      "name": "Approval",
      "type": "event"
    },
    {
      "anonymous": false,
      "inputs": [
        {
          "indexed": true,
          "internalType": "address",
          "name": "owner",
          "type": "address"
        },
        {
          "indexed": true,
          "internalType": "address",
          "name": "operator",
          "type": "address"
        },
        {
          "indexed": false,
          "internalType": "bool",
          "name": "approved",
          "type": "bool"
        }
      ],
      "name": "ApprovalForAll",
      "type": "event"
    },
    {
      "anonymous": false,
      "inputs": [
        {
          "indexed": true,
          "internalType": "address",
          "name": "previousOwner",
          "type": "address"
        },
        {
          "indexed": true,
          "internalType": "address",
          "name": "newOwner",
          "type": "address"
        }
      ],
      "name": "OwnershipTransferred",
      "type": "event"
    },
    {
      "anonymous": false,
      "inputs": [
        {
          "indexed": true,
          "internalType": "address",
          "name": "from",
          "type": "address"
        },
        {
          "indexed": true,
          "internalType": "address",
          "name": "to",
          "type": "address"
        },
        {
          "indexed": true,
          "internalType": "uint256",
          "name": "tokenId",
          "type": "uint256"
        }
      ],
      "name": "Transfer",
      "type": "event"
    },
    {
      "inputs": [
        {
          "internalType": "address",
          "name": "to",
          "type": "address"
        },
        {
          "internalType": "uint256",
          "name": "tokenId",
          "type": "uint256"
        }
      ],
      "name": "approve",
      "outputs": [],
      "stateMutability": "nonpayable",
      "type": "function"
    },
    {
      "inputs": [
        {
          "internalType": "address",
          "name": "owner",
          "type": "address"
        }
      ],
      "name": "balanceOf",
      "outputs": [
        {
          "internalType": "uint256",
          "name": "",
          "type": "uint256"
        }
      ],
      "stateMutability": "view",
      "type": "function"
    },
    {
      "inputs": [
        {
          "internalType": "uint256",
          "name": "tokenId",
          "type": "uint256"
        }
      ],
      "name": "getApproved",
      "outputs": [
        {
          "internalType": "address",
          "name": "",
          "type": "address"
        }
      ],
      "stateMutability": "view",
      "type": "function"
    },
    {
      "inputs": [
        {
          "internalType": "address",
          "name": "owner",
          "type": "address"
        },
        {
          "internalType": "address",
          "name": "operator",
          "type": "address"
        }
      ],
      "name": "isApprovedForAll",
      "outputs": [
        {
          "internalType": "bool",
          "name": "",
          "type": "bool"
        }
      ],
      "stateMutability": "view",
      "type": "function"
    },
    {
      "inputs": [
        {
          "internalType": "address",
          "name": "recipient",
          "type": "address"
        }
      ],
      "name": "mintNFT",
      "outputs": [
        {
          "internalType": "uint256",
          "name": "",
          "type": "uint256"
        }
      ],
      "stateMutability": "nonpayable",
      "type": "function"
    },
    {
      "inputs": [],
      "name": "name",
      "outputs": [
        {
          "internalType": "string",
          "name": "",
          "type": "string"
        }
      ],
      "stateMutability": "view",
      "type": "function"
    },
    {
      "inputs": [],
      "name": "owner",
      "outputs": [
        {
          "internalType": "address",
          "name": "",
          "type": "address"
        }
      ],
      "stateMutability": "view",
      "type": "function"
    },
    {
      "inputs": [
        {
          "internalType": "uint256",
          "name": "tokenId",
          "type": "uint256"
        }
      ],
      "name": "ownerOf",
      "outputs": [
        {
          "internalType": "address",
          "name": "",
          "type": "address"
        }
      ],
      "stateMutability": "view",
      "type": "function"
    },
    {
      "inputs": [],
      "name": "renounceOwnership",
      "outputs": [],
      "stateMutability": "nonpayable",
      "type": "function"
    },
    {
      "inputs": [
        {
          "internalType": "address",
          "name": "from",
          "type": "address"
        },
        {
          "internalType": "address",
          "name": "to",
          "type": "address"
        },
        {
          "internalType": "uint256",
          "name": "tokenId",
          "type": "uint256"
        }
      ],
      "name": "safeTransferFrom",
      "outputs": [],
      "stateMutability": "nonpayable",
      "type": "function"
    },
    {
      "inputs": [
        {
          "internalType": "address",
          "name": "from",
          "type": "address"
        },
        {
          "internalType": "address",
          "name": "to",
          "type": "address"
        },
        {
          "internalType": "uint256",
          "name": "tokenId",
          "type": "uint256"
        },
        {
          "internalType": "bytes",
          "name": "data",
          "type": "bytes"
        }
      ],
      "name": "safeTransferFrom",
      "outputs": [],
      "stateMutability": "nonpayable",
      "type": "function"
    },
    {
      "inputs": [
        {
          "internalType": "address",
          "name": "operator",
          "type": "address"
        },
        {
          "internalType": "bool",
          "name": "approved",
          "type": "bool"
        }
      ],
      "name": "setApprovalForAll",
      "outputs": [],
      "stateMutability": "nonpayable",
      "type": "function"
    },
    {
      "inputs": [
        {
          "internalType": "string",
          "name": "baseURI",
          "type": "string"
        }
      ],
      "name": "setBaseURI",
      "outputs": [],
      "stateMutability": "nonpayable",
      "type": "function"
    },
    {
      "inputs": [
        {
          "internalType": "bytes4",
          "name": "interfaceId",
          "type": "bytes4"
        }
      ],
      "name": "supportsInterface",
      "outputs": [
        {
          "internalType": "bool",
          "name": "",
          "type": "bool"
        }
      ],
      "stateMutability": "view",
      "type": "function"
    },
    {
      "inputs": [],
      "name": "symbol",
      "outputs": [
        {
          "internalType": "string",
          "name": "",
          "type": "string"
        }
      ],
      "stateMutability": "view",
      "type": "function"
    },
    {
      "inputs": [
        {
          "internalType": "uint256",
          "name": "tokenId",
          "type": "uint256"
        }
      ],
      "name": "tokenURI",
      "outputs": [
        {
          "internalType": "string",
          "name": "",
          "type": "string"
        }
      ],
      "stateMutability": "view",
      "type": "function"
    },
    {
      "inputs": [
        {
          "internalType": "address",
          "name": "from",
          "type": "address"
        },
        {
          "internalType": "address",
          "name": "to",
          "type": "address"
        },
        {
          "internalType": "uint256",
          "name": "tokenId",
          "type": "uint256"
        }
      ],
      "name": "transferFrom",
      "outputs": [],
      "stateMutability": "nonpayable",
      "type": "function"
    },
    {
      "inputs": [
        {
          "internalType": "address",
          "name": "newOwner",
          "type": "address"
        }
      ],
      "name": "transferOwnership",
      "outputs": [],
      "stateMutability": "nonpayable",
      "type": "function"
    }
  ],
  "bytecode": "0x60806040523480156200001157600080fd5b5060405162001625380380620016258339810160408190526200003491620001b4565b3382826000620000458382620002af565b506001620000548282620002af565b5050506001600160a01b0381166200008657604051631e4fbdf760e01b81526000600482015260240160405180910390fd5b62000091816200009a565b5050506200037b565b600680546001600160a01b038381166001600160a01b0319831681179093556040519116919082907f8be0079c531659141344cd1fd0a4f28419497f9722a3daafe3b4186f6b6457e090600090a35050565b634e487b7160e01b600052604160045260246000fd5b600082601f8301126200011457600080fd5b81516001600160401b0380821115620001315762000131620000ec565b604051601f8301601f19908116603f011681019082821181831017156200015c576200015c620000ec565b81604052838152602092508660208588010111156200017a57600080fd5b600091505b838210156200019e57858201830151818301840152908201906200017f565b6000602085830101528094505050505092915050565b60008060408385031215620001c857600080fd5b82516001600160401b0380821115620001e057600080fd5b620001ee8683870162000102565b935060208501519150808211156200020557600080fd5b50620002148582860162000102565b9150509250929050565b600181811c908216806200023357607f821691505b6020821081036200025457634e487b7160e01b600052602260045260246000fd5b50919050565b601f821115620002aa576000816000526020600020601f850160051c81016020861015620002855750805b601f850160051c820191505b81811015620002a65782815560010162000291565b5050505b505050565b81516001600160401b03811115620002cb57620002cb620000ec565b620002e381620002dc84546200021e565b846200025a565b602080601f8311600181146200031b5760008415620003025750858301515b600019600386901b1c1916600185901b178555620002a6565b600085815260208120601f198616915b828110156200034c578886015182559484019460019091019084016200032b565b50858210156200036b5787850151600019600388901b60f8161c191681555b5050505050600190811b01905550565b61129a806200038b6000396000f3fe608060405234801561001057600080fd5b50600436106101165760003560e01c806370a08231116100a2578063a22cb46511610071578063a22cb46514610239578063b88d4fde1461024c578063c87b56dd1461025f578063e985e9c514610272578063f2fde38b1461028557600080fd5b806370a0823114610205578063715018a6146102185780638da5cb5b1461022057806395d89b411461023157600080fd5b806323b872dd116100e957806323b872dd1461019857806342842e0e146101ab57806354ba0f27146101be57806355f804b3146101df5780636352211e146101f257600080fd5b806301ffc9a71461011b57806306fdde0314610143578063081812fc14610158578063095ea7b314610183575b600080fd5b61012e610129366004610d82565b610298565b60405190151581526020015b60405180910390f35b61014b6102ea565b60405161013a9190610def565b61016b610166366004610e02565b61037c565b6040516001600160a01b03909116815260200161013a565b610196610191366004610e37565b6103a5565b005b6101966101a6366004610e61565b6103b4565b6101966101b9366004610e61565b610444565b6101d16101cc366004610e9d565b610464565b60405190815260200161013a565b6101966101ed366004610f44565b610482565b61016b610200366004610e02565b610496565b6101d1610213366004610e9d565b6104a1565b6101966104e9565b6006546001600160a01b031661016b565b61014b6104fd565b610196610247366004610f8d565b61050c565b61019661025a366004610fc9565b610517565b61014b61026d366004610e02565b61052f565b61012e610280366004611045565b610597565b610196610293366004610e9d565b6105c5565b60006001600160e01b031982166380ac58cd60e01b14806102c957506001600160e01b03198216635b5e139f60e01b145b806102e457506301ffc9a760e01b6001600160e01b03198316145b92915050565b6060600080546102f990611078565b80601f016020809104026020016040519081016040528092919081815260200182805461032590611078565b80156103725780601f1061034757610100808354040283529160200191610372565b820191906000526020600020905b81548152906001019060200180831161035557829003601f168201915b5050505050905090565b600061038782610603565b506000828152600460205260409020546001600160a01b03166102e4565b6103b082823361063c565b5050565b6001600160a01b0382166103e357604051633250574960e11b8152600060048201526024015b60405180910390fd5b60006103f0838333610649565b9050836001600160a01b0316816001600160a01b03161461043e576040516364283d7b60e01b81526001600160a01b03808616600483015260248201849052821660448201526064016103da565b50505050565b61045f83838360405180602001604052806000815250610517565b505050565b600080600754600161047691906110b2565b90506102e48382610742565b61048a61075c565b60086103b0828261111b565b60006102e482610603565b60006001600160a01b0382166104cd576040516322718ad960e21b8152600060048201526024016103da565b506001600160a01b031660009081526003602052604090205490565b6104f161075c565b6104fb6000610789565b565b6060600180546102f990611078565b6103b03383836107db565b6105228484846103b4565b61043e338585858561087a565b606061053a82610603565b5060006105456109a5565b905060008151116105655760405180602001604052806000815250610590565b8061056f846109b4565b6040516020016105809291906111db565b6040516020818303038152906040525b9392505050565b6001600160a01b03918216600090815260056020908152604080832093909416825291909152205460ff1690565b6105cd61075c565b6001600160a01b0381166105f757604051631e4fbdf760e01b8152600060048201526024016103da565b61060081610789565b50565b6000818152600260205260408120546001600160a01b0316806102e457604051637e27328960e01b8152600481018490526024016103da565b61045f8383836001610a47565b6000828152600260205260408120546001600160a01b039081169083161561067657610676818486610b4d565b6001600160a01b038116156106b457610693600085600080610a47565b6001600160a01b038116600090815260036020526040902080546000190190555b6001600160a01b038516156106e3576001600160a01b0385166000908152600360205260409020805460010190555b60008481526002602052604080822080546001600160a01b0319166001600160a01b0389811691821790925591518793918516917fddf252ad1be2c89b69c2b068fc378daa952ba7f163c4a11628f55a4df523b3ef91a4949350505050565b6103b0828260405180602001604052806000815250610bb1565b6006546001600160a01b031633146104fb5760405163118cdaa760e01b81523360048201526024016103da565b600680546001600160a01b038381166001600160a01b0319831681179093556040519116919082907f8be0079c531659141344cd1fd0a4f28419497f9722a3daafe3b4186f6b6457e090600090a35050565b6001600160a01b03821661080d57604051630b61174360e31b81526001600160a01b03831660048201526024016103da565b6001600160a01b03838116600081815260056020908152604080832094871680845294825291829020805460ff191686151590811790915591519182527f17307eab39ab6107e8899845ad3d59bd9653f200f220920489ca2b5937696c31910160405180910390a3505050565b6001600160a01b0383163b1561099e57604051630a85bd0160e11b81526001600160a01b0384169063150b7a02906108bc90889088908790879060040161120a565b6020604051808303816000875af19250505080156108f7575060408051601f3d908101601f191682019092526108f491810190611247565b60015b610960573d808015610925576040519150601f19603f3d011682016040523d82523d6000602084013e61092a565b606091505b50805160000361095857604051633250574960e11b81526001600160a01b03851660048201526024016103da565b805181602001fd5b6001600160e01b03198116630a85bd0160e11b1461099c57604051633250574960e11b81526001600160a01b03851660048201526024016103da565b505b5050505050565b6060600880546102f990611078565b606060006109c183610bc9565b600101905060008167ffffffffffffffff8111156109e1576109e1610eb8565b6040519080825280601f01601f191660200182016040528015610a0b576020820181803683370190505b5090508181016020015b600019016f181899199a1a9b1b9c1cb0b131b232b360811b600a86061a8153600a8504945084610a1557509392505050565b8080610a5b57506001600160a01b03821615155b15610b1d576000610a6b84610603565b90506001600160a01b03831615801590610a975750826001600160a01b0316816001600160a01b031614155b8015610aaa5750610aa88184610597565b155b15610ad35760405163a9fbf51f60e01b81526001600160a01b03841660048201526024016103da565b8115610b1b5783856001600160a01b0316826001600160a01b03167f8c5be1e5ebec7d5bd14f71427d1e84f3dd0314c0f7b2291e5b200ac8c7c3b92560405160405180910390a45b505b5050600090815260046020526040902080546001600160a01b0319166001600160a01b0392909216919091179055565b610b58838383610ca1565b61045f576001600160a01b038316610b8657604051637e27328960e01b8152600481018290526024016103da565b60405163177e802f60e01b81526001600160a01b0383166004820152602481018290526044016103da565b610bbb8383610d07565b61045f33600085858561087a565b60008072184f03e93ff9f4daa797ed6e38ed64bf6a1f0160401b8310610c085772184f03e93ff9f4daa797ed6e38ed64bf6a1f0160401b830492506040015b6d04ee2d6d415b85acef81000000008310610c34576d04ee2d6d415b85acef8100000000830492506020015b662386f26fc100008310610c5257662386f26fc10000830492506010015b6305f5e1008310610c6a576305f5e100830492506008015b6127108310610c7e57612710830492506004015b60648310610c90576064830492506002015b600a83106102e45760010192915050565b60006001600160a01b03831615801590610cff5750826001600160a01b0316846001600160a01b03161480610cdb5750610cdb8484610597565b80610cff57506000828152600460205260409020546001600160a01b038481169116145b949350505050565b6001600160a01b038216610d3157604051633250574960e11b8152600060048201526024016103da565b6000610d3f83836000610649565b90506001600160a01b0381161561045f576040516339e3563760e11b8152600060048201526024016103da565b6001600160e01b03198116811461060057600080fd5b600060208284031215610d9457600080fd5b813561059081610d6c565b60005b83811015610dba578181015183820152602001610da2565b50506000910152565b60008151808452610ddb816020860160208601610d9f565b601f01601f19169290920160200192915050565b6020815260006105906020830184610dc3565b600060208284031215610e1457600080fd5b5035919050565b80356001600160a01b0381168114610e3257600080fd5b919050565b60008060408385031215610e4a57600080fd5b610e5383610e1b565b946020939093013593505050565b600080600060608486031215610e7657600080fd5b610e7f84610e1b565b9250610e8d60208501610e1b565b9150604084013590509250925092565b600060208284031215610eaf57600080fd5b61059082610e1b565b634e487b7160e01b600052604160045260246000fd5b600067ffffffffffffffff80841115610ee957610ee9610eb8565b604051601f8501601f19908116603f01168101908282118183101715610f1157610f11610eb8565b81604052809350858152868686011115610f2a57600080fd5b858560208301376000602087830101525050509392505050565b600060208284031215610f5657600080fd5b813567ffffffffffffffff811115610f6d57600080fd5b8201601f81018413610f7e57600080fd5b610cff84823560208401610ece565b60008060408385031215610fa057600080fd5b610fa983610e1b565b915060208301358015158114610fbe57600080fd5b809150509250929050565b60008060008060808587031215610fdf57600080fd5b610fe885610e1b565b9350610ff660208601610e1b565b925060408501359150606085013567ffffffffffffffff81111561101957600080fd5b8501601f8101871361102a57600080fd5b61103987823560208401610ece565b91505092959194509250565b6000806040838503121561105857600080fd5b61106183610e1b565b915061106f60208401610e1b565b90509250929050565b600181811c9082168061108c57607f821691505b6020821081036110ac57634e487b7160e01b600052602260045260246000fd5b50919050565b808201808211156102e457634e487b7160e01b600052601160045260246000fd5b601f82111561045f576000816000526020600020601f850160051c810160208610156110fc5750805b601f850160051c820191505b8181101561099c57828155600101611108565b815167ffffffffffffffff81111561113557611135610eb8565b611149816111438454611078565b846110d3565b602080601f83116001811461117e57600084156111665750858301515b600019600386901b1c1916600185901b17855561099c565b600085815260208120601f198616915b828110156111ad5788860151825594840194600190910190840161118e565b50858210156111cb5787850151600019600388901b60f8161c191681555b5050505050600190811b01905550565b600083516111ed818460208801610d9f565b835190830190611201818360208801610d9f565b01949350505050565b6001600160a01b038581168252841660208201526040810183905260806060820181905260009061123d90830184610dc3565b9695505050505050565b60006020828403121561125957600080fd5b815161059081610d6c56fea2646970667358221220016ea32834dd51abfc4afdea1274c4b61fd55251c09a96ca05116bef64c723eb64736f6c63430008170033",
  "linkReferences": {},
  "deployedLinkReferences": {}
}