{
  "_format": "hh-sol-artifact-1",
  "contractName": "UserOperationLib",
  "sourceName": "@account-abstraction/contracts/core/UserOperationLib.sol",
  "abi": [
    {
      "inputs": [],
      "name": "PAYMASTER_DATA_OFFSET",
      "outputs": [
        {
          "internalType": "uint256",
          "name": "",
          "type": "uint256"
        }
      ],
      "stateMutability": "view",
      "type": "function"
    },
    {
      "inputs": [],
      "name": "PAYMASTER_POSTOP_GAS_OFFSET",
      "outputs": [
        {
          "internalType": "uint256",
          "name": "",
          "type": "uint256"
        }
      ],
      "stateMutability": "view",
      "type": "function"
    },
    {
      "inputs": [],
      "name": "PAYMASTER_VALIDATION_GAS_OFFSET",
      "outputs": [
        {
          "internalType": "uint256",
          "name": "",
          "type": "uint256"
        }
      ],
      "stateMutability": "view",
      "type": "function"
    }
  ],
  "bytecode": "0x60a9610039600b82828239805160001a60731461002c57634e487b7160e01b600052600060045260246000fd5b30600052607381538281f3fe730000000000000000000000000000000000000000301460806040526004361060475760003560e01c806325093e1b14604c578063b29a8ff4146065578063ede3150214606c575b600080fd5b6053602481565b60405190815260200160405180910390f35b6053601481565b605360348156fea2646970667358221220da10ce14444097f012d04a4f82de7b5c991303ba177bf40cd1c4fa5d1ab3f13764736f6c63430008170033",
  "linkReferences": {},
  "deployedLinkReferences": {}
}