{
  "_format": "hh-sol-artifact-1",
  "contractName": "SignatureVerifyingPaymasterV07",
  "sourceName": "contracts/SignatureVerifyingPaymasterV07.sol",
  "abi": [
    {
      "inputs": [
        {
          "internalType": "contract IEntryPoint",
          "name": "_entryPoint",
          "type": "address"
        }
      ],
      "stateMutability": "nonpayable",
      "type": "constructor"
    },
    {
      "inputs": [
        {
          "internalType": "address",
          "name": "target",
          "type": "address"
        }
      ],
      "name": "AddressEmptyCode",
      "type": "error"
    },
    {
      "inputs": [],
      "name": "ECDSAInvalidSignature",
      "type": "error"
    },
    {
      "inputs": [
        {
          "internalType": "uint256",
          "name": "length",
          "type": "uint256"
        }
      ],
      "name": "ECDSAInvalidSignatureLength",
      "type": "error"
    },
    {
      "inputs": [
        {
          "internalType": "bytes32",
          "name": "s",
          "type": "bytes32"
        }
      ],
      "name": "ECDSAInvalidSignatureS",
      "type": "error"
    },
    {
      "inputs": [
        {
          "internalType": "address",
          "name": "implementation",
          "type": "address"
        }
      ],
      "name": "ERC1967InvalidImplementation",
      "type": "error"
    },
    {
      "inputs": [],
      "name": "ERC1967NonPayable",
      "type": "error"
    },
    {
      "inputs": [],
      "name": "FailedCall",
      "type": "error"
    },
    {
      "inputs": [],
      "name": "InvalidInitialization",
      "type": "error"
    },
    {
      "inputs": [],
      "name": "InvalidPaymasterData",
      "type": "error"
    },
    {
      "inputs": [
        {
          "internalType": "uint256",
          "name": "length",
          "type": "uint256"
        }
      ],
      "name": "InvalidSignatureLength",
      "type": "error"
    },
    {
      "inputs": [],
      "name": "NotInitializing",
      "type": "error"
    },
    {
      "inputs": [
        {
          "internalType": "address",
          "name": "owner",
          "type": "address"
        }
      ],
      "name": "OwnableInvalidOwner",
      "type": "error"
    },
    {
      "inputs": [
        {
          "internalType": "address",
          "name": "account",
          "type": "address"
        }
      ],
      "name": "OwnableUnauthorizedAccount",
      "type": "error"
    },
    {
      "inputs": [
        {
          "internalType": "address",
          "name": "recovered",
          "type": "address"
        },
        {
          "internalType": "address",
          "name": "expected",
          "type": "address"
        }
      ],
      "name": "SignerMismatch",
      "type": "error"
    },
    {
      "inputs": [],
      "name": "UUPSUnauthorizedCallContext",
      "type": "error"
    },
    {
      "inputs": [
        {
          "internalType": "bytes32",
          "name": "slot",
          "type": "bytes32"
        }
      ],
      "name": "UUPSUnsupportedProxiableUUID",
      "type": "error"
    },
    {
      "inputs": [],
      "name": "UnauthorizedUpgrade",
      "type": "error"
    },
    {
      "anonymous": false,
      "inputs": [
        {
          "indexed": true,
          "internalType": "address",
          "name": "newEntryPoint",
          "type": "address"
        }
      ],
      "name": "EntryPointChanged",
      "type": "event"
    },
    {
      "anonymous": false,
      "inputs": [
        {
          "indexed": false,
          "internalType": "uint64",
          "name": "version",
          "type": "uint64"
        }
      ],
      "name": "Initialized",
      "type": "event"
    },
    {
      "anonymous": false,
      "inputs": [
        {
          "indexed": true,
          "internalType": "address",
          "name": "previousOwner",
          "type": "address"
        },
        {
          "indexed": true,
          "internalType": "address",
          "name": "newOwner",
          "type": "address"
        }
      ],
      "name": "OwnershipTransferred",
      "type": "event"
    },
    {
      "anonymous": false,
      "inputs": [
        {
          "indexed": true,
          "internalType": "address",
          "name": "implementation",
          "type": "address"
        }
      ],
      "name": "Upgraded",
      "type": "event"
    },
    {
      "anonymous": false,
      "inputs": [
        {
          "indexed": false,
          "internalType": "bytes32",
          "name": "userOpHash",
          "type": "bytes32"
        },
        {
          "indexed": false,
          "internalType": "uint256",
          "name": "maxCost",
          "type": "uint256"
        },
        {
          "indexed": false,
          "internalType": "uint48",
          "name": "validUntil",
          "type": "uint48"
        },
        {
          "indexed": false,
          "internalType": "uint48",
          "name": "validAfter",
          "type": "uint48"
        }
      ],
      "name": "Validated",
      "type": "event"
    },
    {
      "anonymous": false,
      "inputs": [
        {
          "indexed": true,
          "internalType": "address",
          "name": "oldSigner",
          "type": "address"
        },
        {
          "indexed": true,
          "internalType": "address",
          "name": "newSigner",
          "type": "address"
        }
      ],
      "name": "VerifyingSignerUpdated",
      "type": "event"
    },
    {
      "inputs": [],
      "name": "UPGRADE_INTERFACE_VERSION",
      "outputs": [
        {
          "internalType": "string",
          "name": "",
          "type": "string"
        }
      ],
      "stateMutability": "view",
      "type": "function"
    },
    {
      "inputs": [],
      "name": "VERSION",
      "outputs": [
        {
          "internalType": "uint256",
          "name": "",
          "type": "uint256"
        }
      ],
      "stateMutability": "view",
      "type": "function"
    },
    {
      "inputs": [
        {
          "internalType": "uint32",
          "name": "unstakeDelaySec",
          "type": "uint32"
        }
      ],
      "name": "addStake",
      "outputs": [],
      "stateMutability": "payable",
      "type": "function"
    },
    {
      "inputs": [],
      "name": "deposit",
      "outputs": [],
      "stateMutability": "payable",
      "type": "function"
    },
    {
      "inputs": [],
      "name": "entryPoint",
      "outputs": [
        {
          "internalType": "contract IEntryPoint",
          "name": "",
          "type": "address"
        }
      ],
      "stateMutability": "view",
      "type": "function"
    },
    {
      "inputs": [],
      "name": "getDeposit",
      "outputs": [
        {
          "internalType": "uint256",
          "name": "",
          "type": "uint256"
        }
      ],
      "stateMutability": "view",
      "type": "function"
    },
    {
      "inputs": [
        {
          "internalType": "uint48",
          "name": "validUntil",
          "type": "uint48"
        },
        {
          "internalType": "uint48",
          "name": "validAfter",
          "type": "uint48"
        },
        {
          "internalType": "address",
          "name": "paymasterAddress",
          "type": "address"
        },
        {
          "internalType": "address",
          "name": "senderAddress",
          "type": "address"
        }
      ],
      "name": "getHash",
      "outputs": [
        {
          "internalType": "bytes32",
          "name": "",
          "type": "bytes32"
        }
      ],
      "stateMutability": "view",
      "type": "function"
    },
    {
      "inputs": [
        {
          "internalType": "address",
          "name": "_verifyingSigner",
          "type": "address"
        },
        {
          "internalType": "address",
          "name": "_owner",
          "type": "address"
        }
      ],
      "name": "initialize",
      "outputs": [],
      "stateMutability": "nonpayable",
      "type": "function"
    },
    {
      "inputs": [],
      "name": "owner",
      "outputs": [
        {
          "internalType": "address",
          "name": "",
          "type": "address"
        }
      ],
      "stateMutability": "view",
      "type": "function"
    },
    {
      "inputs": [
        {
          "internalType": "bytes",
          "name": "paymasterData",
          "type": "bytes"
        }
      ],
      "name": "parsePaymasterData",
      "outputs": [
        {
          "internalType": "uint48",
          "name": "validUntil",
          "type": "uint48"
        },
        {
          "internalType": "uint48",
          "name": "validAfter",
          "type": "uint48"
        },
        {
          "internalType": "bytes",
          "name": "signature",
          "type": "bytes"
        }
      ],
      "stateMutability": "pure",
      "type": "function"
    },
    {
      "inputs": [
        {
          "internalType": "enum IPaymaster.PostOpMode",
          "name": "mode",
          "type": "uint8"
        },
        {
          "internalType": "bytes",
          "name": "context",
          "type": "bytes"
        },
        {
          "internalType": "uint256",
          "name": "actualGasCost",
          "type": "uint256"
        },
        {
          "internalType": "uint256",
          "name": "actualUserOpFeePerGas",
          "type": "uint256"
        }
      ],
      "name": "postOp",
      "outputs": [],
      "stateMutability": "nonpayable",
      "type": "function"
    },
    {
      "inputs": [],
      "name": "proxiableUUID",
      "outputs": [
        {
          "internalType": "bytes32",
          "name": "",
          "type": "bytes32"
        }
      ],
      "stateMutability": "view",
      "type": "function"
    },
    {
      "inputs": [],
      "name": "renounceOwnership",
      "outputs": [],
      "stateMutability": "nonpayable",
      "type": "function"
    },
    {
      "inputs": [
        {
          "internalType": "address",
          "name": "_verifyingSigner",
          "type": "address"
        }
      ],
      "name": "setVerifyingSigner",
      "outputs": [],
      "stateMutability": "nonpayable",
      "type": "function"
    },
    {
      "inputs": [
        {
          "internalType": "address",
          "name": "newOwner",
          "type": "address"
        }
      ],
      "name": "transferOwnership",
      "outputs": [],
      "stateMutability": "nonpayable",
      "type": "function"
    },
    {
      "inputs": [],
      "name": "unlockStake",
      "outputs": [],
      "stateMutability": "nonpayable",
      "type": "function"
    },
    {
      "inputs": [
        {
          "internalType": "address",
          "name": "newImplementation",
          "type": "address"
        },
        {
          "internalType": "bytes",
          "name": "data",
          "type": "bytes"
        }
      ],
      "name": "upgradeToAndCall",
      "outputs": [],
      "stateMutability": "payable",
      "type": "function"
    },
    {
      "inputs": [
        {
          "components": [
            {
              "internalType": "address",
              "name": "sender",
              "type": "address"
            },
            {
              "internalType": "uint256",
              "name": "nonce",
              "type": "uint256"
            },
            {
              "internalType": "bytes",
              "name": "initCode",
              "type": "bytes"
            },
            {
              "internalType": "bytes",
              "name": "callData",
              "type": "bytes"
            },
            {
              "internalType": "bytes32",
              "name": "accountGasLimits",
              "type": "bytes32"
            },
            {
              "internalType": "uint256",
              "name": "preVerificationGas",
              "type": "uint256"
            },
            {
              "internalType": "bytes32",
              "name": "gasFees",
              "type": "bytes32"
            },
            {
              "internalType": "bytes",
              "name": "paymasterAndData",
              "type": "bytes"
            },
            {
              "internalType": "bytes",
              "name": "signature",
              "type": "bytes"
            }
          ],
          "internalType": "struct PackedUserOperation",
          "name": "userOp",
          "type": "tuple"
        },
        {
          "internalType": "bytes32",
          "name": "userOpHash",
          "type": "bytes32"
        },
        {
          "internalType": "uint256",
          "name": "maxCost",
          "type": "uint256"
        }
      ],
      "name": "validatePaymasterUserOp",
      "outputs": [
        {
          "internalType": "bytes",
          "name": "context",
          "type": "bytes"
        },
        {
          "internalType": "uint256",
          "name": "validationData",
          "type": "uint256"
        }
      ],
      "stateMutability": "nonpayable",
      "type": "function"
    },
    {
      "inputs": [],
      "name": "verifyingSigner",
      "outputs": [
        {
          "internalType": "address",
          "name": "",
          "type": "address"
        }
      ],
      "stateMutability": "view",
      "type": "function"
    },
    {
      "inputs": [
        {
          "internalType": "address payable",
          "name": "withdrawAddress",
          "type": "address"
        }
      ],
      "name": "withdrawStake",
      "outputs": [],
      "stateMutability": "nonpayable",
      "type": "function"
    },
    {
      "inputs": [
        {
          "internalType": "address payable",
          "name": "withdrawAddress",
          "type": "address"
        },
        {
          "internalType": "uint256",
          "name": "amount",
          "type": "uint256"
        }
      ],
      "name": "withdrawTo",
      "outputs": [],
      "stateMutability": "nonpayable",
      "type": "function"
    }
  ],
  "bytecode": "0x60c0604052306080523480156200001557600080fd5b5060405162001f3438038062001f3483398101604081905262000038916200025b565b8033806200006157604051631e4fbdf760e01b8152600060048201526024015b60405180910390fd5b6200006c8162000095565b506200007881620000e5565b6001600160a01b031660a0526200008e620001a8565b50620002b1565b600080546001600160a01b038381166001600160a01b0319831681178455604051919092169283917f8be0079c531659141344cd1fd0a4f28419497f9722a3daafe3b4186f6b6457e09190a35050565b6040516301ffc9a760e01b815263122a0e9b60e31b60048201526001600160a01b038216906301ffc9a790602401602060405180830381865afa15801562000131573d6000803e3d6000fd5b505050506040513d601f19601f820116820180604052508101906200015791906200028d565b620001a55760405162461bcd60e51b815260206004820152601e60248201527f49456e747279506f696e7420696e74657266616365206d69736d617463680000604482015260640162000058565b50565b7ff0c57e16840df040f15088dc2f81fe391c3923bec73e23a9662efc9c229c6a00805468010000000000000000900460ff1615620001f95760405163f92ee8a960e01b815260040160405180910390fd5b80546001600160401b0390811614620001a55780546001600160401b0319166001600160401b0390811782556040519081527fc7f505b2f371ae2175ee4913f4499e1f2633a7b5936321eed1cdaeb6115181d29060200160405180910390a150565b6000602082840312156200026e57600080fd5b81516001600160a01b03811681146200028657600080fd5b9392505050565b600060208284031215620002a057600080fd5b815180151581146200028657600080fd5b60805160a051611c1e620003166000396000818161036c01528181610457015281816104ee015281816107a30152818161083d015281816108ad0152818161093a0152610c1e015260008181610aaf01528181610ad801526110360152611c1e6000f3fe60806040526004361061012a5760003560e01c80638224225c116100ab578063c23a5cea1161006f578063c23a5cea146103a3578063c399ec88146103c3578063d0e30db0146103d8578063f2fde38b146103e0578063f5cba98c14610400578063ffa1ad741461042057600080fd5b80638224225c1461028a5780638da5cb5b146102fe578063ad3cb1cc1461031c578063b0d691fe1461035a578063bb9fe6bf1461038e57600080fd5b806352b7512c116100f257806352b7512c146101d457806352d1902d14610202578063715018a6146102255780637c627b211461023a57806381e4d81d1461025a57600080fd5b80630396cb601461012f578063205c28781461014457806323d9ac9b14610164578063485cc955146101a15780634f1ef286146101c1575b600080fd5b61014261013d36600461160d565b610435565b005b34801561015057600080fd5b5061014261015f366004611648565b6104c0565b34801561017057600080fd5b50600154610184906001600160a01b031681565b6040516001600160a01b0390911681526020015b60405180910390f35b3480156101ad57600080fd5b506101426101bc366004611674565b610532565b6101426101cf3660046116c3565b610666565b3480156101e057600080fd5b506101f46101ef366004611787565b610685565b60405161019892919061182b565b34801561020e57600080fd5b506102176106a9565b604051908152602001610198565b34801561023157600080fd5b506101426106c6565b34801561024657600080fd5b50610142610255366004611896565b6106da565b34801561026657600080fd5b5061027a610275366004611901565b6106f6565b6040516101989493929190611943565b34801561029657600080fd5b506102176102a53660046119aa565b6040805165ffffffffffff95861660208083019190915294909516858201524660608601526001600160a01b039283166080860152911660a0808501919091528151808503909101815260c09093019052815191012090565b34801561030a57600080fd5b506000546001600160a01b0316610184565b34801561032857600080fd5b5061034d604051806040016040528060058152602001640352e302e360dc1b81525081565b6040516101989190611a02565b34801561036657600080fd5b506101847f000000000000000000000000000000000000000000000000000000000000000081565b34801561039a57600080fd5b50610142610799565b3480156103af57600080fd5b506101426103be366004611a15565b610816565b3480156103cf57600080fd5b50610217610895565b610142610925565b3480156103ec57600080fd5b506101426103fb366004611a15565b610987565b34801561040c57600080fd5b5061014261041b366004611a15565b6109c5565b34801561042c57600080fd5b50610217600281565b61043d610a1f565b604051621cb65b60e51b815263ffffffff821660048201527f00000000000000000000000000000000000000000000000000000000000000006001600160a01b031690630396cb609034906024016000604051808303818588803b1580156104a457600080fd5b505af11580156104b8573d6000803e3d6000fd5b505050505050565b6104c8610a1f565b60405163040b850f60e31b81526001600160a01b038381166004830152602482018390527f0000000000000000000000000000000000000000000000000000000000000000169063205c287890604401600060405180830381600087803b1580156104a457600080fd5b7ff0c57e16840df040f15088dc2f81fe391c3923bec73e23a9662efc9c229c6a008054600160401b810460ff16159067ffffffffffffffff166000811580156105785750825b905060008267ffffffffffffffff1660011480156105955750303b155b9050811580156105a3575080155b156105c15760405163f92ee8a960e01b815260040160405180910390fd5b845467ffffffffffffffff1916600117855583156105eb57845460ff60401b1916600160401b1785555b6105f3610a4c565b600180546001600160a01b0319166001600160a01b03891617905561061786610a54565b831561065d57845460ff60401b19168555604051600181527fc7f505b2f371ae2175ee4913f4499e1f2633a7b5936321eed1cdaeb6115181d29060200160405180910390a15b50505050505050565b61066e610aa4565b61067782610b49565b6106818282610b51565b5050565b60606000610691610c13565b61069c858585610c83565b915091505b935093915050565b60006106b361102b565b50600080516020611bc983398151915290565b6106ce610a1f565b6106d86000610a54565b565b6106e2610c13565b6106ef8585858585611074565b5050505050565b6000803681604d85101561071d5760405163097637e960e21b815260040160405180910390fd5b61072b600660008789611a32565b61073491611a5c565b60d01c9350610747600c60068789611a32565b61075091611a5c565b60d01c925061076285600c8189611a32565b9092509050604181146107905760405163058676ad60e31b8152600481018290526024015b60405180910390fd5b92959194509250565b6107a1610a1f565b7f00000000000000000000000000000000000000000000000000000000000000006001600160a01b031663bb9fe6bf6040518163ffffffff1660e01b8152600401600060405180830381600087803b1580156107fc57600080fd5b505af1158015610810573d6000803e3d6000fd5b50505050565b61081e610a1f565b60405163611d2e7560e11b81526001600160a01b0382811660048301527f0000000000000000000000000000000000000000000000000000000000000000169063c23a5cea90602401600060405180830381600087803b15801561088157600080fd5b505af11580156106ef573d6000803e3d6000fd5b6040516370a0823160e01b81523060048201526000907f00000000000000000000000000000000000000000000000000000000000000006001600160a01b0316906370a0823190602401602060405180830381865afa1580156108fc573d6000803e3d6000fd5b505050506040513d601f19601f820116820180604052508101906109209190611a8c565b905090565b60405163b760faf960e01b81523060048201527f00000000000000000000000000000000000000000000000000000000000000006001600160a01b03169063b760faf99034906024016000604051808303818588803b15801561088157600080fd5b61098f610a1f565b6001600160a01b0381166109b957604051631e4fbdf760e01b815260006004820152602401610787565b6109c281610a54565b50565b6109cd610a1f565b600180546001600160a01b038381166001600160a01b0319831681179093556040519116919082907fdeee0b46266dc0734b009b2ca66e2ac28d5fd72d38506a3fe462865f00c5df4e90600090a35050565b6000546001600160a01b031633146106d85760405163118cdaa760e01b8152336004820152602401610787565b6106d86110bf565b600080546001600160a01b038381166001600160a01b0319831681178455604051919092169283917f8be0079c531659141344cd1fd0a4f28419497f9722a3daafe3b4186f6b6457e09190a35050565b306001600160a01b037f0000000000000000000000000000000000000000000000000000000000000000161480610b2b57507f00000000000000000000000000000000000000000000000000000000000000006001600160a01b0316610b1f600080516020611bc9833981519152546001600160a01b031690565b6001600160a01b031614155b156106d85760405163703e46dd60e11b815260040160405180910390fd5b6109c2610a1f565b816001600160a01b03166352d1902d6040518163ffffffff1660e01b8152600401602060405180830381865afa925050508015610bab575060408051601f3d908101601f19168201909252610ba891810190611a8c565b60015b610bd357604051634c9c8ce360e01b81526001600160a01b0383166004820152602401610787565b600080516020611bc98339815191528114610c0457604051632a87526960e21b815260048101829052602401610787565b610c0e8383611108565b505050565b336001600160a01b037f000000000000000000000000000000000000000000000000000000000000000016146106d85760405162461bcd60e51b815260206004820152601560248201527414d95b99195c881b9bdd08115b9d1c9e541bda5b9d605a1b6044820152606401610787565b60606000610cc56040518060400160405280601f81526020017f5f76616c69646174655061796d6173746572557365724f702063616c6c65640081525061115e565b366000610cd560e0880188611aa5565b610ce3916034908290611a32565b91509150600080366000610cf786866106f6565b93509350935093506000610d1a8585308f60000160208101906102a59190611a15565b7f19457468657265756d205369676e6564204d6573736167653a0a3332000000006000908152601c829052603c8120919250506000610d8f8286868080601f0160208091040260200160405190810160405280939291908181526020018383808284376000920191909152506111a192505050565b9050610dc4604051806040016040528060118152602001702932b1b7bb32b932b21039b4b3b732b91d60791b815250826111cb565b60408051808201909152601081526f22bc3832b1ba32b21039b4b3b732b91d60811b6020820152600154610e0191906001600160a01b03166111cb565b6001546001600160a01b03828116911614610e8357610e546040518060400160405280601d81526020017f5369676e617475726520766572696669636174696f6e206661696c656400000081525061115e565b610e6060018888611210565b60405180602001604052806000815250909a509a505050505050505050506106a1565b610ea4604051806060016040528060258152602001611ba46025913961115e565b4265ffffffffffff808216908916111580610ed85750610ec581603c611b02565b65ffffffffffff168865ffffffffffff16105b15610eec57610ee981610e10611b02565b97505b8065ffffffffffff168765ffffffffffff161115610f2957603c8165ffffffffffff1611610f1b576000610f26565b610f26603c82611b28565b96505b610f64604051806040016040528060118152602001702334b730b6103b30b634b22ab73a34b61d60791b8152508965ffffffffffff1661124a565b610f9f604051806040016040528060118152602001702334b730b6103b30b634b220b33a32b91d60791b8152508865ffffffffffff1661124a565b604080518f8152602081018f905265ffffffffffff8a8116828401528916606082015290517fa832915335bfbcdcce15f4da2c2a11df06a8f97105e9be5968c9f6f42bd103669181900360800190a160408051602081018f90520160405160208183030381529060405261101560008a8a611210565b9b509b5050505050505050505050935093915050565b306001600160a01b037f000000000000000000000000000000000000000000000000000000000000000016146106d85760405163703e46dd60e11b815260040160405180910390fd5b6106ef604051806040016040528060158152602001742fb837b9ba27b81031b0b63632b2161036b7b2329d60591b8152508660028111156110b7576110b7611b47565b60ff1661124a565b7ff0c57e16840df040f15088dc2f81fe391c3923bec73e23a9662efc9c229c6a0054600160401b900460ff166106d857604051631afcd79f60e31b815260040160405180910390fd5b6111118261128f565b6040516001600160a01b038316907fbc7cd75a20ee27fd9adebab32041f755214dbc6bffa90cc0225b39da2e5c2d3b90600090a280511561115657610c0e82826112f4565b61068161136a565b6109c2816040516024016111729190611a02565b60408051601f198184030181529190526020810180516001600160e01b031663104c13eb60e21b179052611389565b6000806000806111b18686611392565b9250925092506111c182826113df565b5090949350505050565b61068182826040516024016111e1929190611b5d565b60408051601f198184030181529190526020810180516001600160e01b031663319af33360e01b179052611389565b600060d08265ffffffffffff16901b60a08465ffffffffffff16901b8561123857600061123b565b60015b60ff16171790505b9392505050565b610681828260405160240161126092919061182b565b60408051601f198184030181529190526020810180516001600160e01b0316632d839cb360e21b179052611389565b806001600160a01b03163b6000036112c557604051634c9c8ce360e01b81526001600160a01b0382166004820152602401610787565b600080516020611bc983398151915280546001600160a01b0319166001600160a01b0392909216919091179055565b6060600080846001600160a01b0316846040516113119190611b87565b600060405180830381855af49150503d806000811461134c576040519150601f19603f3d011682016040523d82523d6000602084013e611351565b606091505b5091509150611361858383611498565b95945050505050565b34156106d85760405163b398979f60e01b815260040160405180910390fd5b6109c2816114f4565b600080600083516041036113cc5760208401516040850151606086015160001a6113be88828585611515565b9550955095505050506113d8565b50508151600091506002905b9250925092565b60008260038111156113f3576113f3611b47565b036113fc575050565b600182600381111561141057611410611b47565b0361142e5760405163f645eedf60e01b815260040160405180910390fd5b600282600381111561144257611442611b47565b036114635760405163fce698f760e01b815260048101829052602401610787565b600382600381111561147757611477611b47565b03610681576040516335e2f38360e21b815260048101829052602401610787565b6060826114ad576114a8826115e4565b611243565b81511580156114c457506001600160a01b0384163b155b156114ed57604051639996b31560e01b81526001600160a01b0385166004820152602401610787565b5080611243565b60006a636f6e736f6c652e6c6f679050600080835160208501845afa505050565b600080807f7fffffffffffffffffffffffffffffff5d576e7357a4501ddfe92f46681b20a084111561155057506000915060039050826115da565b604080516000808252602082018084528a905260ff891692820192909252606081018790526080810186905260019060a0016020604051602081039080840390855afa1580156115a4573d6000803e3d6000fd5b5050604051601f1901519150506001600160a01b0381166115d0575060009250600191508290506115da565b9250600091508190505b9450945094915050565b8051156115f45780518082602001fd5b60405163d6bda27560e01b815260040160405180910390fd5b60006020828403121561161f57600080fd5b813563ffffffff8116811461124357600080fd5b6001600160a01b03811681146109c257600080fd5b6000806040838503121561165b57600080fd5b823561166681611633565b946020939093013593505050565b6000806040838503121561168757600080fd5b823561169281611633565b915060208301356116a281611633565b809150509250929050565b634e487b7160e01b600052604160045260246000fd5b600080604083850312156116d657600080fd5b82356116e181611633565b9150602083013567ffffffffffffffff808211156116fe57600080fd5b818501915085601f83011261171257600080fd5b813581811115611724576117246116ad565b604051601f8201601f19908116603f0116810190838211818310171561174c5761174c6116ad565b8160405282815288602084870101111561176557600080fd5b8260208601602083013760006020848301015280955050505050509250929050565b60008060006060848603121561179c57600080fd5b833567ffffffffffffffff8111156117b357600080fd5b840161012081870312156117c657600080fd5b95602085013595506040909401359392505050565b60005b838110156117f65781810151838201526020016117de565b50506000910152565b600081518084526118178160208601602086016117db565b601f01601f19169290920160200192915050565b60408152600061183e60408301856117ff565b90508260208301529392505050565b60008083601f84011261185f57600080fd5b50813567ffffffffffffffff81111561187757600080fd5b60208301915083602082850101111561188f57600080fd5b9250929050565b6000806000806000608086880312156118ae57600080fd5b8535600381106118bd57600080fd5b9450602086013567ffffffffffffffff8111156118d957600080fd5b6118e58882890161184d565b9699909850959660408101359660609091013595509350505050565b6000806020838503121561191457600080fd5b823567ffffffffffffffff81111561192b57600080fd5b6119378582860161184d565b90969095509350505050565b600065ffffffffffff808716835280861660208401525060606040830152826060830152828460808401376000608084840101526080601f19601f850116830101905095945050505050565b803565ffffffffffff811681146119a557600080fd5b919050565b600080600080608085870312156119c057600080fd5b6119c98561198f565b93506119d76020860161198f565b925060408501356119e781611633565b915060608501356119f781611633565b939692955090935050565b60208152600061124360208301846117ff565b600060208284031215611a2757600080fd5b813561124381611633565b60008085851115611a4257600080fd5b83861115611a4f57600080fd5b5050820193919092039150565b6001600160d01b03198135818116916006851015611a845780818660060360031b1b83161692505b505092915050565b600060208284031215611a9e57600080fd5b5051919050565b6000808335601e19843603018112611abc57600080fd5b83018035915067ffffffffffffffff821115611ad757600080fd5b60200191503681900382131561188f57600080fd5b634e487b7160e01b600052601160045260246000fd5b65ffffffffffff818116838216019080821115611b2157611b21611aec565b5092915050565b65ffffffffffff828116828216039080821115611b2157611b21611aec565b634e487b7160e01b600052602160045260246000fd5b604081526000611b7060408301856117ff565b905060018060a01b03831660208301529392505050565b60008251611b998184602087016117db565b919091019291505056fe5369676e61747572652076616c69642c2061646a757374696e672074696d657374616d7073360894a13ba1a3210667c828492db98dca3e2076cc3735a920a3ca505d382bbca2646970667358221220370cd3d692b668699cbba6d266f6411429c1253b2ca844535f4d763ef07f794764736f6c63430008170033",
  "linkReferences": {},
  "deployedLinkReferences": {}
}